:020000040000FA
:10000000102806141F2806101F28003086001F28FD
:1000100086101F2806111F2886111F2806121F2868
:100020008316FF30850004309F00003086000030CA
:100030008F000730810083121F14850186011F1570
:100040001F1920281E08333C0318032806141F1507
:100050001F1928281E08663C0318082886141F1537
:100060001F1930281E08993C03180A2806151F1569
:100070001F1938281E08CC3C03180C2886151F159C
:100080001F1940281E08F03C03180E2806161F28CA
:02400E00103F61
:00000001FF
