:020000040000FA
:10000000282881010108023C031D0228003403173F
:100010000D088D00831603170C1483120C080313AC
:100020008C000034831603170C15831203130C087D
:1000300003178C000D088D00831655308D00AA30F3
:100040008D008C148C1822280C1183120313003499
:1000500083161F308500003086000330890007308A
:100060008100831285018601870101308D00072000
:100070000C088600012086010120071C3D28012074
:100080000718402801208C0A0C08860001208601F0
:06009000012044283D2878
:02400E003A3F37
:00000001FF
