:020000040000FA
:020000003128A5
:080008001C2881010108023CE3
:10001000031D06280034FF30AC00AC0B162800345A
:1000200081010108FD3C031D1128003481010108F4
:10003000FF3C031D17280D28EA00030EE9000608FF
:10004000EB002210181922141A08A1002214061419
:100050001020061010206B088600690E83006A08C5
:100060000900831601308600803087000730810048
:10007000830186018701A201A101831682309900C4
:10008000243098000C168C1683018B019030980058
:100090000B178B178C122210221C4C2821080615D6
:0200A0004F28E7
:02400E003A3F37
:00000001FF
