:020000040000FA
:02000000A9282D
:080008001C2881010108023CE3
:10001000031D06280034FF30AC00AC0B162800345A
:1000200081010108FD3C031D1128003481010108F4
:10003000FF3C031D17280D28EA00030EE9000608FF
:10004000EB00A2101819A2141A084F3C031DA100BE
:10005000221407140B2007100B206B088600690E72
:1000600083006A08090099000C1E342808004130FA
:10007000332008004230332008004330332008008A
:100080004430332008004530332008004630332008
:10009000080047303320080048303320080049303A
:1000A000332008004D30332008004E303320080044
:1000B00054303320080050303320080052303320B1
:1000C00008005330332008005530332008002B300F
:1000D000332008003D30332008005C303320080016
:1000E0003C30332008003E3033200800723033208B
:1000F00008006E30332008003130332008003030E3
:100100003320080032303320080033303320080019
:1001100034303320080035303320080036303320A7
:1001200008003730332008003830332008003930D9
:10013000332008002230332008003B3033200800F1
:100140001A30332008000D30332008006D2076204F
:100150000800831601308600803087000030880058
:10016000073081008301860187018801A20183167F
:1001700082309900243098008C1683018B019030D6
:1001800098008B170B178C1237205820A3200B20B8
:100190003720582067204F205B205E206A20972060
:1001A0008E207F207F20A3200B203720582067201F
:1001B0003D204620642055206A207C20A3200B206F
:1001C0008601881588163720582067203D20522048
:1001D000492046206A207F20A3200B20372058206A
:1001E00040207F2097207F20852082209420972008
:1001F00082207F2088207F20A3200B200B200B2033
:100200002D293720582067203D20522049204620A4
:100210006A207C20A3200B203720582067203D2017
:100220005220492061206A209A2067208220852060
:10023000882097207F20852082209420972082206C
:100240007F2088207F209A20A3200B204C204F2045
:10025000A0200B200B200B200B20221C081488143C
:100260008601372058204C207F20A3200B203129E5
:02400E003A3F37
:00000001FF
