:020000040000FA
:10000000432881010108103C031D022800348101AE
:100010000108083C031D0828003481010108203C28
:10002000031D0E28003481010108043C031D14281F
:10003000003402308C000D208C0B1B2800348614F9
:100040000615861507208610061186110720003434
:1000500006140615861507200610061186110720BE
:1000600000348614061486150720861006108611A3
:100070000720003486140615061407208610061182
:1000800006100720003483160730850000308600F4
:100090000730810083128501860105185A28061051
:1000A00085185D28861005196028061185196328B2
:1000B00086114D2806141F20502886142820532806
:0C00C00006153120562886153A204D28E0
:02400E00F03F81
:00000001FF
