:020000040000FA
:02000000EC2AE8
:08000800AB2881010108023C54
:10001000031D0628003481010108AA3C031D0C2899
:100020000000000000345D08DA00652B5D08DB008D
:10003000652B5D08DC00652B6F086E020319242810
:10004000EF0A6F088207000028282A282C28242875
:100050005A08F2295B08F2295C08F22928286F085F
:100060008207652B132816281928EF01752B5D10C0
:1000700006185D14B628DD100618DD14B6285D11CB
:1000800006185D15B628DD110618DD15B6285D12B7
:1000900006185D16B628DD120618DD16B6285D13A3
:1000A00006185D17B628DD130618DD17B628EE0A08
:1000B0008B13831603170C15831203135D080317A4
:1000C0008C0003136E0803178D00831655308D00C6
:1000D000AA308D008C148C186B280C11831203131A
:1000E0008B170C115A2B6F086E02031D7928EF0134
:1000F000752BEF0A6F0803178D0083160C148312FB
:100100000C080313DD0008006D08023C0319532896
:100110006D08033C03194F286D08043C03194B2854
:100120006D08053C031947286D08063C0319432850
:100130006D08073C03193F286D08083C03193B284C
:100140006D08093C031937286D080B3C031DB628C0
:100150005E14ED010034EA00030EE9000608EB002E
:100160003222ED0A6D08013C031D84286B088600CD
:10017000690E83006A080C11090009150911260887
:10018000E800C122BB222708E800C122BB222808C0
:10019000E800C122BB222908E800C122BB223008A6
:1001A000E800C122BB223108E800C122AB29BB22F2
:1001B0003208E800C122BB223308E800C122AB2983
:1001C000BB223408E800C122BB22AB29BE22AB29E6
:1001D0003508E800C122BE22AB293608860005207A
:1001E000FF308600BE22370886000520FF308600DB
:1001F000BE22380886000520FF308600BE2239085E
:1002000086000520FF308600BE22400886000520BB
:10021000FF308600BE22410886000520FF308600A0
:10022000BE22420886000520FF308600BE22430819
:1002300086000520FF308600BE22440886008030FC
:1002400088000520FF308600450886004030880081
:100250000520FF30860046088600203088000520F3
:10026000FF30860047088600103088000520FF30E8
:10027000860048088600083088000520FF30860088
:1002800049088600043088000520FF3086005008A9
:100290008600023088000520FF3086005108860065
:1002A000013088000520FF30860088015208860052
:1002B000803087000520FF308600530886004030DC
:1002C00087000520FF308600540886002030870014
:1002D0000520FF3086005508860010308700052075
:1002E000FF30860056088600083087000520FF3062
:1002F000860057088600013087000520FF30860001
:1003000058088600023087000520FF3086008701EC
:1003100059088600013085000520FF3086006008FE
:100320008600023085000520FF3086008501AB295C
:100330000730A000A00B9D2900342108A600220848
:10034000A1002308A2002408A3002508A400FF3070
:10035000A5001430E600E60BBD285908E000580857
:10036000D9005708D8005608D7005508D6005408B9
:10037000D5005308D4005208D3005108D2005008C9
:10038000D1004908D0004808C9004708C8004608FD
:10039000C7004508C6004408C5004308C400420819
:1003A000C3004108C2004008C1003908C000380835
:1003B000B9003708B8003608B7003508B600340869
:1003C000B5003308B4003208B3003108B200300879
:1003D000B1002908B0002808A9002708A8002608AD
:1003E000A7009A29DF001C3C031D022AC130A1008E
:1003F000B730A2007730A300B730A400C130A50009
:1004000098211C285F08323C031D122A0130A100EC
:100410006D30A2006D30A3006D30A4009330A500B4
:1004200098211C285F08213C031D762B8330A100F6
:100430007D30A2007D30A3007D30A400BB30A5003C
:1004400098291C285F08233C031D322A0130A10093
:100450007D30A2007D30A300BB30A400C730A500D2
:1004600098291C285F08243C031D422A0130A10062
:100470006D30A2006D30A3006D30A4007D30A5006A
:1004800098291C285F082B3C031D512A0130A1002C
:100490006F30A2006F30A3006F30A4007F30A50042
:1004A00098295F08343C031D612A8330A1007D3008
:1004B000A2006530A3006D30A400A330A5009829E8
:1004C00008005F08333C031D702A0130A100EF30A3
:1004D000A200EF30A300EF30A4000130A50098295E
:1004E0005F08433C031D802A7D30A1007D30A200BF
:1004F0000130A3007D30A4007D30A50098290800BC
:100500005F083B3C031D8F2AF330A1007D30A20021
:100510007D30A3000330A4007F30A50098295F0838
:10052000423C031D9F2A0130A100EF30A200D730CA
:10053000A300BB30A4007D30A500982908005F0807
:100540004B3C031D5A2B0130A100FD30A200FD30B1
:10055000A300FD30A400FD30A50098290800FF305D
:10056000A100FF30A200FF30A300FF30A400FF3045
:10057000A50098290800891489100034091409106D
:1005800000346808FE38860005206808FD388600BB
:1005900005206808FB38860005206808F7388600C3
:1005A00005206808EF38860005206808DF388600D7
:1005B00005206808BF388600052068087F38860057
:1005C0000520FF3086000034AF22AF22AF22AF22D9
:1005D000AF22AF22AF220800831600308600003021
:1005E0008500043087000030880000308900073023
:1005F00081000C1583018501870188018901ED01C6
:10060000EF01EE01043097008B010C118B170B17D3
:10061000FF308600FF30A600FF30A700FF30A800A3
:10062000FF30A900FF30B000FF30B100FF30B20052
:10063000FF30B300FF30B400FF30B500FF30B6002C
:10064000FF30B700FF30B800FF30B900FF30C00006
:10065000FF30C100FF30C200FF30C300FF30C400D4
:10066000FF30C500FF30C600FF30C700FF30C800B4
:10067000FF30C900FF30D000FF30D100FF30D20082
:10068000FF30D300FF30D400FF30D500FF30D6005C
:10069000FF30D700FF30D800FF30D900FF30E00036
:1006A000FF30E100FF30E200FF30E300FF30E40004
:1006B000FF30E5005E1C5A2BDE0122225D08003C63
:1006C000031D57288B130B13EF0173202F285A0893
:1006D00086000B200B200B200B200B20FF30860008
:1006E0000B200B200B200B20672B1C2842223222D0
:1006F00032222222AF22AF225A2B6122F221702213
:100700009F22AF220222F2210222F221E4225A2B5E
:02400E00FF3F72
:024200000000BC
:00000001FF
