:020000040000FA
:02000000A7282F
:080008000B2881010108023CF4
:10001000031D06280034EA00030EE900ED0A690E0C
:1000200083006A080C112A140900FF30AC00AC0BE5
:100030002028003481010108023C031D1B280034E4
:1000400081010108FF3C031D21281728803088000A
:100050002A10C728403088002A10C728203088007E
:100060002A10C728103088002A10C72808308800B6
:100070002A10C728043088002A10C72802308800B8
:100080002A10C728013088002A10C72888010130AB
:1000900085002A10C728023085002A10C72804309E
:1000A00085002A10C728083085002A10C72810307C
:1000B00085002A10C728203085002A10C72885010E
:1000C000803087002A10C728403087002A10C728B0
:1000D000203087002A10C728103087002A10C72830
:1000E000083087002A10C7288701023089002A10AB
:1000F000C7288901023087002A10C72801308700ED
:100100002A10C7288701803086002A10C72840306F
:1001100086002A10C728203086002A10C7281030F1
:1001200086002A10C728083086002A10C728043005
:1001300086002A10C728023086002A10C7280130FE
:1001400086002A10C7288601ED012A10C7288316C9
:1001500000308600003088000030850004308700C1
:1001600000308900053081000C158301850186016E
:10017000870188018901ED01EF01EE01AA01AE01BD
:10018000AD01043097008B010C118B170B172A1C43
:10019000C7286D088207C72826282A282E28322833
:1001A00036283A283E28422846284B284F285328EC
:1001B00057285B285F28642868286C2870287428D2
:1001C00079287E28822887288B288F2893289728AB
:0601D0009B289F28A328D4
:02400E003A3F37
:024200000000BC
:00000001FF
