:020000040000FA
:02000000962D3B
:08000800692881010108043C94
:10001000031D06280034FF30AC00AC0B162800345A
:1000200081010108023C031D1128003481010108EF
:10003000FF3C031D17280D28EF0B2028EF01282E69
:100040000B200B202E1006182E147528AE10061843
:10005000AE1475282E1106182E157528AE11061827
:10006000AE1575282E1206182E167528AE12061813
:10007000AE1675282E1306182E177528AE130618FF
:10008000AE1775286D08023C031922286D08033C41
:10009000031926286D08043C03192A286D08053C1D
:1000A00003192E286D08063C031932286D08073CF9
:1000B000031936286D08083C03193A286D08093CD5
:1000C00003193E286D08213C031D75282A14ED01F3
:1000D0000034EA00030EE9000108AF000608EB0057
:1000E000ED0A6D08013C031D42286B088600690E6D
:1000F00083002F0881006A080C11090009140910F7
:100100002608E8005D25091409102708E8005D2588
:10011000091409102808E8005D25091409102908A8
:10012000E8005D25091409103008E8005D25091470
:1001300009103108E8005D25091409103208E800AB
:100140005D25091409103308E8005D25091409101C
:100150003408E8005D25091409103508E8005D251C
:10016000091409103608E8005D250914091037083C
:10017000E8005D25091409103808E8005D25091418
:1001800009103908E8005D25091409104008E80045
:100190005D25091409104108E8005D2509140910BE
:1001A0004208E8005D25091409104308E8005D25B0
:1001B000091409104408E8005D25091409104508D0
:1001C000E8005D25091409104608E8005D250914BA
:1001D00009104708E8005D25091409104808E800DF
:1001E0005D25091409104908E8005D250914091066
:1001F0005008E8005D25091409105108E8005D2544
:10020000091409105208E8005D2509140910530863
:10021000E8005D25091409105408E8005D2509145B
:1002200009105508E8005D25091409108030880080
:100230005608E8005D258801403088005708E8002E
:100240005D25203088005808E8005D2510308800C2
:100250005908E8005D25083088006008E8005D2541
:10026000043088006108E8005D25023088006208DB
:10027000E8005D25013088006308E8005D258801FD
:10028000013085006408E8005D25023085006508BE
:10029000E8005D25043085006708E8005D258501DC
:1002A00064290730A000A00B562900342108A600BD
:1002B0002208A1002308A2002408A3002508A40006
:1002C000FF30A5000530E600E60B7E286508E70054
:1002D0006408E5006308E4006208E3006108E200E6
:1002E0006008E1005908E0005808D9005708D80014
:1002F0005608D7005508D6005408D5005308D40036
:100300005208D3005108D2005008D1004908D0004B
:100310004808C9004708C8004608C7004508C60085
:100320004408C5004308C4004208C3004108C20095
:100330004008C1003908C0003808B9003708B800C3
:100340003608B7003508B6003408B5003308B400E5
:100350003208B3003108B2003008B1002908B000FB
:100360002808A9002708A8002608A7005329AB00E1
:100370001C3C031DC729C130A100B730A200773053
:10038000A300B730A400C130A5005121C32C2B0815
:10039000323C031DD7290130A1006D30A2006D3021
:1003A000A3006D30A4009330A5005121C32C2B086D
:1003B000213C031DE7298330A1007D30A2007D3060
:1003C000A3007D30A400BB30A5005121C32C2B0815
:1003D000233C031DF7290130A1007D30A2007D30B0
:1003E000A300BB30A400C730A5005121C32C2B08AB
:1003F000243C031D072A0130A1006D30A2006D309E
:10040000A3006D30A4007D30A5005121C32C2B0822
:100410002B3C031D172A0130A1006F30A2006F3062
:10042000A3006F30A4007F30A5005121C32C2B08FE
:10043000343C031D272A8330A1007D30A2006530A3
:10044000A3006D30A400A330A5005121C32C2B08BC
:10045000333C031D372A0130A100EF30A200EF30FA
:10046000A300EF30A4000130A5005121C32C2B08BC
:10047000433C031D472A7D30A1007D30A20001309E
:10048000A3007D30A4007D30A5005121C32C2B0892
:100490003B3C031D572AF330A1007D30A2007D3084
:1004A000A3000330A4007F30A5005121C32C2B08EA
:1004B000423C031D672A0130A100EF30A200D73073
:1004C000A300BB30A4007D30A5005121C32C2B0814
:1004D0004B3C031D772A0130A100FD30A200FD3006
:1004E000A300FD30A400FD30A5005121C32C2B0832
:1004F0003A3C031D872A0130A100BF30A200DF3043
:10050000A300BF30A4000130A5005121C32C2B084B
:10051000313C031D972A0130A100BF30A200DF301B
:10052000A300EF30A4000130A5005121C32C2B08FB
:10053000443C031DA72A8330A1007D30A2007D30FA
:10054000A3007D30A4008330A5005121C32C2B08CB
:100550004D3C031DB72A0130A1006F30A2006F305F
:10056000A3006F30A4009F30A5005121C32C2B089D
:10057000153C031DC72A8330A1007D30A2007530D1
:10058000A3007930A4008130A5005121C32C2B0891
:100590002D3C031DD72A0130A1006F30A2006F301F
:1005A000A3006F30A4009130A5005121C32C2B086B
:1005B0001B3C031DE72A9B30A1006D30A2006D306B
:1005C000A3006D30A400B330A5005121C32C2B082B
:1005D0002C3C031DF72A7F30A1007F30A2000130A0
:1005E000A3007F30A4007F30A5005121C32C2B082D
:1005F0003C3C031D072B0330A100FD30A200FD3061
:10060000A300FD30A4000330A5005121C32C2B080A
:100610002A3C031D172B0730A100FB30A200FD3040
:10062000A300FB30A4000730A5005121C32C2B08E8
:100630001D3C031D272B0130A100FB30A200F73029
:10064000A300FB30A4000130A5005121C32C2B08CE
:10065000223C031D372B3930A100D730A200EF30E8
:10066000A300D730A4003930A5005121C32C2B089A
:10067000353C031D472B3F30A100DF30A200E130A5
:10068000A300DF30A4003F30A5005121C32C2B086C
:100690001A3C031D572B7930A1007530A2006D3034
:1006A000A3005D30A4003D30A5005121C32C2B08D0
:1006B000453C031D672B8330A1007D30A2007D30B7
:1006C000A3007D30A4008330A5005121C32C2B084A
:1006D000163C031D772BDD30A100BD30A200013098
:1006E000A300FD30A400FD30A5005121C32C2B0830
:1006F0001E3C031D872BBD30A1007930A200753050
:10070000A3006D30A4009D30A5005121C32C2B08FF
:10071000263C031D972B7B30A1007D30A2005D306D
:10072000A3004D30A4003330A5005121C32C2B0869
:10073000253C031DA72BCF30A100AF30A2006F30A6
:10074000A300EF30A4000130A5005121C32C2B08D9
:100750002E3C031DB72B0B30A1005D30A2005D3095
:10076000A3005D30A4006330A5005121C32C2B08E9
:10077000363C031DC72B8330A1006D30A2006D30C5
:10078000A3006D30A400B330A5005121C32C2B0869
:100790003D3C031DD72B7930A1007730A2006F308C
:1007A000A3005F30A4003F30A5005121C32C2B08CB
:1007B0003E3C031DE72B9330A1006D30A2006D304D
:1007C000A3006D30A4009330A5005121C32C2B0849
:1007D000463C031DF72B9B30A1006D30A2006D300D
:1007E000A3006D30A4008330A5005121C32C2B0839
:1007F000293C031DC32CFF30A100FF30A200FF30B5
:10080000A300FF30A400FF30A5005121C32CFF300E
:10081000A100FF30A200FF30A300FF30A400FF3092
:10082000A500512908008330A1007D30A200653069
:10083000A3006D30A400A330A50051290800833027
:10084000A1007D30A2007D30A3007D30A400833064
:10085000A500512908000130A1007D30A2007D30A3
:10086000A300BB30A400C730A5005129080089149B
:10087000891000340914091000346F088207302EE3
:100880005E2C612C642C672C6A2C6D2C702C732CC4
:10089000762C792C7C2C7F2C822C852C882C8B2CF4
:1008A0008E2C912C942C972C9A2C9D2CA02CA32C24
:1008B000A62CAB2CB02CB42CB92CBE2C2E08BA0014
:1008C00008002E08BB0008002E08BC0008002E08F7
:1008D000BD0008002E08BE0008002E08BF0008005A
:1008E0002E08CA0008002E08CB0008002E08CC00F5
:1008F00008002E08CD0008002E08CE0008002E08A3
:10090000CF0008002E08DA0008002E08DB000800DF
:100910002E08DC0008002E08DD0008002E08DE008E
:1009200008002E08DF0008002E08FA0008002E0834
:10093000FB0008002E08FC0008002E08FD0008003F
:100940002E08FE0008002E08FF0008002E0883165F
:10095000A000831208002E088316A100831208004D
:100960002E088316A20083122E088316A30083127A
:1009700008002E088316A400831208002E08831690
:10098000A500831208006F086E02031DCA2C8E2575
:10099000EF01C32CEF0A6F0882070000ED2CEF2C4B
:1009A000F12CF32CF52CF72CF92CFB2CFD2CFF2C27
:1009B000012D032D052D072D092D0B2D0D2D0F2D8F
:1009C000112D132D152D172D192D1B2D1D2D212DFD
:1009D000252D292D2D2D312DCE2C3A08B7293B0858
:1009E000B7293C08B7293D08B7293E08B7293F0871
:1009F000B7294A08B7294B08B7294C08B7294D0829
:100A0000B7294E08B7294F08B7295A08B7295B08F4
:100A1000B7295C08B7295D08B7295E08B7295F08C0
:100A2000B7297A08B7297B08B7297C08B7297D0838
:100A3000B7297E08B7297F08B729831620088312B3
:100A4000B729831621088312B72983162208831237
:100A5000B729831623088312B72983162408831223
:100A6000B729831625088312B729EE0A8B1383163C
:100A700003170C15831203132E0803178C0003139E
:100A80006E0803178D00831655308D00AA308D0037
:100A90008C148C18492D0C118312031310208B1702
:100AA0000C116E085C3C0319282EED01162E8600F1
:100AB0000520FF308600052008006808FD38860004
:100AC00005206808FB38860005206808F73886008E
:100AD00005206808EF38860005206808DF388600A2
:100AE00005206808BF388600052068087F38860022
:100AF0000520FF308600052000346F086E02031DBC
:100B0000832DEF01332EEF0A6F0803178D00831634
:100B10000C1483120C080313AE00080007240724EA
:100B2000072407240724072407240800830104302E
:100B30009700831601308600F83085000430870066
:100B40000030880000308900053081000C158301D9
:100B50008501870188018901ED01EF01EE01AA01FC
:100B6000AE01AD018B010C11FF308600FF30A600F5
:100B7000FF30A700FF30A800FF30A900FF30B00011
:100B8000FF30B100FF30B200FF30B300FF30B400DF
:100B9000FF30B500FF30B600FF30B700FF30B800BF
:100BA000FF30B900FF30C000FF30C100FF30C2008D
:100BB000FF30C300FF30C400FF30C500FF30C60067
:100BC000FF30C700FF30C800FF30C900FF30D00041
:100BD000FF30D100FF30D200FF30D300FF30D4000F
:100BE000FF30D500FF30D600FF30D700FF30D800EF
:100BF000FF30D900FF30E000FF30E100FF30E200BD
:100C0000FF30E300FF30E400FF30E500FF30E70095
:100C10000B208B170B1713241F241F242B240724AE
:100C200013241F242B24051A282E2A102A1C162EC2
:100C30002A10EF012B242E08763C0319162E2E08BD
:100C40005A3C031D352D6E08AE005C30EE00362D8B
:100C50008B130B135C30EF008425EF012E08EE00A0
:080C60007D253D24302EC32C3C
:02400E003A3F37
:024200000000BC
:00000001FF
