:020000040000FA
:10000000482881010108053C031D0228000000006A
:10001000003481010108AA3C031D0A2800000000E9
:10002000003426088600013085000120850127085C
:1000300086000230850001208501280886000430F2
:1000400085000120850129088600083085000120EF
:1000500085013008860010308500012085013E288A
:100060002108A6002208A1002308A2002408A3005A
:100070002508A400FF30A5003230B100B10B1128D3
:100080002908B0002808A9002708A8002608A7000A
:100090008316E03085000030860003308100831233
:1000A00085018601A601A701A801A901B001C130FF
:1000B000A100B730A2007730A300B730A400C13050
:1000C000A50021088600103085000120FF30860041
:1000D00022088600083085000120FF3086002308B2
:1000E0008600043085000120FF3086002408860049
:1000F000023085000120FF3086002508860001308F
:0A01000085000120FF308600612811
:02400E00103F61
:00000001FF
