:020000040000FA
:02000000E52AEF
:08000800AB2881010108023C54
:10001000031D0628003481010108AA3C031D0C2899
:100020000000000000345D08DA005E2B5D08DB0094
:100030005E2B5D08DC005E2B6F086E02031924281E
:10004000EF0A6F088207000028282A282C28242875
:100050005A08F2295B08F2295C08F22928286F085F
:1000600082075E2B132816281928EF016E2B5D10CE
:1000700006185D14B628DD100618DD14B6285D11CB
:1000800006185D15B628DD110618DD15B6285D12B7
:1000900006185D16B628DD120618DD16B6285D13A3
:1000A00006185D17B628DD130618DD17B628EE0A08
:1000B0008B13831603170C15831203135D080317A4
:1000C0008C0003136E0803178D00831655308D00C6
:1000D000AA308D008C148C186B280C11831203131A
:1000E0008B170C11532B6F086E02031D7928EF013B
:1000F0006E2BEF0A6F0803178D0083160C14831202
:100100000C080313DD0008006D08023C0319532896
:100110006D08033C03194F286D08043C03194B2854
:100120006D08053C031947286D08063C0319432850
:100130006D08073C03193F286D08083C03193B284C
:100140006D08093C031937286D080B3C031DB628C0
:100150005E14ED010034EA00030EE9000608EB002E
:100160002E22ED0A6D08013C031D84286B088600D1
:10017000690E83006A080C11090009150911260887
:10018000E800BA22B4222708E800BA22B4222808DC
:10019000E800BA22B4222908E800BA22B4223008C2
:1001A000E800BA22B4223108E800BA22AB29B4220E
:1001B0003208E800BA22B4223308E800BA22AB2998
:1001C000B4223408E800BA22B422AB29B722AB2902
:1001D0003508E800BA22B722AB2936088600052088
:1001E000FF308600B722370886000520FF308600E2
:1001F000B722380886000520FF308600B72239086C
:1002000086000520FF308600B722400886000520C2
:10021000FF308600B722410886000520FF308600A7
:10022000B722420886000520FF308600B722430827
:1002300086000520FF308600B72244088600803003
:1002400088000520FF308600450886004030880081
:100250000520FF30860046088600203088000520F3
:10026000FF30860047088600103088000520FF30E8
:10027000860048088600083088000520FF30860088
:1002800049088600043088000520FF3086005008A9
:100290008600023088000520FF3086005108860065
:1002A000013088000520FF30860088015208860052
:1002B000803087000520FF308600530886004030DC
:1002C00087000520FF308600540886002030870014
:1002D0000520FF3086005508860010308700052075
:1002E000FF30860056088600083087000520FF3062
:1002F000860057088600013087000520FF30860001
:1003000058088600023087000520FF3086008701EC
:1003100059088600013085000520FF3086006008FE
:100320008600023085000520FF3086008501AB295C
:100330000730A000A00B9D2900342108A600220848
:10034000A1002308A2002408A3002508A400FF3070
:10035000A5001430E600E60BBD285908E000580857
:10036000D9005708D8005608D7005508D6005408B9
:10037000D5005308D4005208D3005108D2005008C9
:10038000D1004908D0004808C9004708C8004608FD
:10039000C7004508C6004408C5004308C400420819
:1003A000C3004108C2004008C1003908C000380835
:1003B000B9003708B8003608B7003508B600340869
:1003C000B5003308B4003208B3003108B200300879
:1003D000B1002908B0002808A9002708A8002608AD
:1003E000A7009A29DF001C3C031D022AC130A1008E
:1003F000B730A2007730A300B730A400C130A50009
:1004000098211C285F08323C031D122A0130A100EC
:100410006D30A2006D30A3006D30A4009330A500B4
:1004200098211C285F08213C031D6F2B8330A100FD
:100430007D30A2007D30A3007D30A400BB30A5003C
:1004400098291C280130A1007D30A2007D30A30036
:10045000BB30A400C730A50098291C287E30A1001D
:100460005030A2000D30A3004030A4000030A500A1
:1004700098291C285F082B3C031D492A0130A10044
:100480006F30A2006F30A3006F30A4007F30A50052
:1004900098295F08343C031D592A8330A1007D3020
:1004A000A2006530A3006D30A400A330A5009829F8
:1004B00008005F08333C031D682A0130A100EF30BB
:1004C000A200EF30A300EF30A4000130A50098296E
:1004D0005F08433C031D782A7D30A1007D30A200D7
:1004E0000130A3007D30A4007D30A50098290800CC
:1004F0005F083B3C031D872AF330A1007D30A2003A
:100500007D30A3000330A4007F30A50098295F0848
:10051000423C031D972A0130A100EF30A200D730E2
:10052000A300BB30A4007D30A50098290800A42AB0
:100530005F084B3C031D532B0130A100FD30A2008E
:10054000FD30A300FD30A400FD30A500982908006F
:10055000FF30A100FF30A200FF30A300FF30A40055
:10056000FF30A50098290800891489100034091467
:10057000091000346808FE38860005206808FD3838
:10058000860005206808FB38860005206808F738D3
:10059000860005206808EF38860005206808DF38E7
:1005A000860005206808BF388600052068087F3867
:1005B00086000520FF3086000034A822A822A82249
:1005C000A822A822A822A8220800831600308600AC
:1005D000003085000430870000308800003089003A
:1005E000073081000C15830185018701880189018D
:1005F000ED01EF01EE01043097008B010C118B1718
:100600000B17FF308600FF30A600FF30A700FF3039
:10061000A800FF30A900FF30B000FF30B100FF306C
:10062000B200FF30B300FF30B400FF30B500FF3040
:10063000B600FF30B700FF30B800FF30B900FF3020
:10064000C000FF30C100FF30C200FF30C300FF30E8
:10065000C400FF30C500FF30C600FF30C700FF30C8
:10066000C800FF30C900FF30D000FF30D100FF309C
:10067000D200FF30D300FF30D400FF30D500FF3070
:10068000D600FF30D700FF30D800FF30D900FF3050
:10069000E000FF30E100FF30E200FF30E300FF3018
:1006A000E400FF30E5005E1C532BDE0122225D08D2
:1006B000003C031D57288B130B13EF0173202F28C9
:1006C0005A0886000B200B200B200B200B20FF303C
:1006D00086000B200B200B200B20602B1C283A22BD
:1006E0002E222E222222A822A822532B5922F22186
:1006F00068229722A8220222F2210222F221DD2280
:02070000532B79
:02400E003A3F37
:024200000000BC
:00000001FF
