:020000040000FA
:02000000F22AE2
:08000800AF2881010108023C50
:10001000031D0628003481010108FA3C031D0C2849
:100020000000000000345D08DA00782B5D08DB007A
:10003000782B5D08DC00782B6F086E0203192428EA
:10004000EF0A6F088207000028282A282C28242875
:100050005A08052A5B08052A5C08052A28286F0823
:100060008207782B132816281928EF017A2B5D10A8
:1000700006185D14BA28DD100618DD14BA285D11C3
:1000800006185D15BA28DD110618DD15BA285D12AF
:1000900006185D16BA28DD120618DD16BA285D139B
:1000A00006185D17BA28DD130618DD17BA28EE0A00
:1000B0008B13831603170C15831203135D080317A4
:1000C0008C0003136E0803178D00831655308D00C6
:1000D000AA308D008C148C186B280C11831203131A
:1000E0008B170C116E08003C0319722B662B6F08DE
:1000F0006E02031D7D28EF017A2BEF0A6F080317AC
:100100008D0083160C1483120C080313DD00080005
:100110006D08023C031953286D08033C03194F284E
:100120006D08043C03194B286D08053C031947284A
:100130006D08063C031943286D08073C03193F2846
:100140006D08083C03193B286D08093C0319372842
:100150006D080B3C031DBA285E14ED010034EA0063
:10016000030EE9000608EB004022ED0A6D08013C91
:10017000031D88286B088600690E83006A080C112D
:10018000090009150911260886000520FF308600A0
:10019000C122270886000520FF308600C1222808DA
:1001A00086000520FF308600C12229088600052030
:1001B000FF308600C122300886000520FF3086000F
:1001C000C122310886000520FF308600C122320896
:1001D00086000520FF308600C122330886000520F6
:1001E000FF308600C122340886000520FF308600DB
:1001F000C122C422350886000520FF308600C422B3
:10020000360886000520FF308600C42237088600A5
:100210000520FF308600C422380886000520FF3004
:100220008600C422390886000520FF308600C422DB
:10023000400886000520FF308600C4224108860061
:100240000520FF308600C422420886000520FF30CA
:100250008600C422430886000520FF308600C422A1
:1002600044088600803088000520FF30860045085D
:100270008600403088000520FF3086004608860052
:10028000203088000520FF308600470886001030A7
:1002900088000520FF308600480886000830880066
:1002A0000520FF30860049088600043088000520BC
:1002B000FF30860050088600023088000520FF309D
:1002C000860051088600013088000520FF30860036
:1002D000880152088600803087000520FF308600A4
:1002E00053088600403087000520FF308600540800
:1002F0008600203087000520FF30860055088600E4
:10030000103087000520FF30860056088600083030
:1003100087000520FF3086005708860001308700DF
:100320000520FF308600580886000230870005202F
:10033000FF308600870159088600013085000520BE
:10034000FF30860060088600023085000520FF30FF
:1003500086008501BE290730A000A00BB02900341B
:100360002108A6002208A1002308A2002408A30057
:100370002508A400FF30A5001430E600E60BC128D4
:100380005908E0005808D9005708D8005608D70087
:100390005508D6005408D5005308D4005208D3009D
:1003A0005108D2005008D1004908D0004808C900BF
:1003B0004708C8004608C7004508C6004408C500ED
:1003C0004308C4004208C3004108C2004008C100FD
:1003D0003908C0003808B9003708B8003608B70037
:1003E0003508B6003408B5003308B4003208B3004D
:1003F0003108B2003008B1002908B0002808A9006F
:100400002708A8002608A700AD29DF001C3C031D13
:10041000152AC130A100B730A2007730A300B73051
:10042000A400C130A500AB211C285F08323C031D8D
:10043000252A0130A1006D30A2006D30A3006D307F
:10044000A4009330A500AB211C285F08213C031DAC
:100450008330A1007D30A2007D30A3007D30A40058
:10046000BB30A500AB291C280130A1007D30A200C3
:100470007D30A300BB30A400C730A500AB291C28E9
:100480000130A1006D30A2006D30A3006D30A400DA
:100490007D30A500AB291C285F082B3C031D5B2A7F
:1004A0000130A1006F30A2006F30A3006F30A400B4
:1004B0007F30A500AB295F08343C031D6B2A8330D5
:1004C000A1007D30A2006530A3006D30A400A330F0
:1004D000A500AB2908005F08333C031D7A2A0130D0
:1004E000A100EF30A200EF30A300EF30A4000130F4
:1004F000A500AB295F08433C031D8A2A7D30A1007B
:100500007D30A2000130A3007D30A4007D30A50025
:10051000AB2908005F083B3C031D992AF330A1007A
:100520007D30A2007D30A3000330A4007F30A50001
:10053000AB295F08423C031DA92A0130A100EF301E
:10054000A200D730A300BB30A4007D30A500AB29AA
:1005500008005F084B3C031D662B0130A100FD30F5
:10056000A200FD30A300FD30A400FF30A100FF3049
:10057000A200FF30A300FF30A400FF30A500AB298C
:10058000080089148910003409140910003468081F
:10059000FE38860005206808FD38860005206808BA
:1005A000FB38860005206808F738860005206808B3
:1005B000EF38860005206808DF38860005206808C7
:1005C000BF388600052068087F3886000520FF3088
:1005D00086000034B522B522B522B522B522B52257
:1005E000B5220800831600308600003085000430F4
:1005F00087000030880000308900073081000C152A
:1006000083018501870188018901ED01EF01EE0178
:10061000043097008B010C118B170B17FF308600ED
:10062000FF30A600FF30A700FF30A800FF30A90070
:10063000FF30B000FF30B100FF30B200FF30B30038
:10064000FF30B400FF30B500FF30B600FF30B70018
:10065000FF30B800FF30B900FF30C000FF30C100EC
:10066000FF30C200FF30C300FF30C400FF30C500C0
:10067000FF30C600FF30C700FF30C800FF30C900A0
:10068000FF30D000FF30D100FF30D200FF30D30068
:10069000FF30D400FF30D500FF30D600FF30D70048
:1006A000FF30D800FF30D900FF30E000FF30E1001C
:1006B000FF30E200FF30E300FF30E400FF30E500F0
:1006C0000B205D08013C031D722BDE015E1C662BB6
:1006D000DE0134225D08003C031D57286E08DD0052
:1006E000EE015E288B130B13EF017E200130EE002C
:1006F00077202F281C284C22402240223422B52269
:10070000B522662B6B2205227A22A922B522152258
:0A071000052215220522EA22662BBD
:02400E003A3F37
:024200000000BC
:00000001FF
