:0200000038289E
:0E0006008312031322088A00210882000800DA
:1000140003208A110A128000840AA10A0319A20A81
:08002400F003031D0A28080087
:10002C00831203131A08F100981C1E2818121816B4
:06003C007108F00008004D
:10004200831603139816903083129800831687172D
:10005200071383128C1E30281A08F0002A28080081
:0E0062000030831203138C1A0130F0000800E6
:100070008316031388018312880181308316990047
:10008000181521200330FB008A30FC005530FD009C
:10009000FD0B4828FC0B4828FB0B482800000000FB
:1000A0000817312070080319A12816207008A00035
:1000B00088171A30FB005E30FC006E30FD00FD0B2F
:1000C0005F28FC0B5F28FB0B5F28000088131A30A9
:1000D000FB005E30FC006E30FD00FD0B6D28FC0B5C
:1000E0006D28FB0B6D2800002008313A031D7D2888
:1000F00008187C2808147D2808102008323A031DAF
:100100008628881885288814862888102008333A7D
:10011000031D8F2808198E2808158F28081120081C
:10012000343A031D9828881997288815982888112B
:100130002008353A031DA128081AA0280816A1286E
:0601400008125128A2285C
:02400E00022F7F
:00000001FF
