:020000007C285A
:100006008316031398180928000003283D08831255
:040016009900080045
:0E001A008316031339088A0038088200080094
:1000280083160313BC013A0884000008BB003B0890
:10003800003A03192A283B08BD0003208316BC0A8E
:0E0048003C083A0784000008BB001B28080093
:100056000D208A110A128000840AB80A0319B90A07
:08006600F003031D2B28080024
:10006E008316031398169030831298008316871701
:10007E00071383128C1E46281A08F0004028080029
:10008E00831203131A08F100981C4F281812181621
:06009E007108F0000800EB
:1000A400831603178C1C58280000522803133A089F
:1000B400831203178D00831603133B08831203175F
:1000C4008C0083168C130C150B08F0008B13553021
:1000D4008D00AA308D008C14F01B72288B137328AA
:0600E4008B170C1108004F
:0E00EA000030831203138C1A0130F00008005E
:1000F800982181308316031399001815372003308F
:10010800FB008A30FC005530FD00FD0B8928FC0BF4
:100118008928FB0B892800000000831688018312B8
:100128008801881720308316BA0014204D30FB0050
:100138001930FC004F30FD00FD0BA028FC0BA02857
:10014800FB0BA028000000002430BA001420333034
:10015800FB00BB30FC00DF30FD00FD0BB128FC0BC1
:10016800B128FB0BB12800000000752070080319A6
:10017800CA2847207008EF006E0A8316BA00700874
:10018800BB00522083120313EE0AB928A03083164D
:10019800BA0014203330FB00BB30FC00DF30FD0018
:1001A800FD0BD428FC0BD428FB0BD428000000003E
:1001B800A730BA001420CB30FB00EC30FC008430B0
:1001C800FD00FD0BE528FC0BE528FB0BE5280000EE
:1001D8008312881362308316BA0014203330FB0070
:1001E800BB30FC00DF30FD00FD0BF828FC0BF828C5
:1001F800FB0BF828000000002930BA001420333027
:10020800FB00BB30FC00DF30FD00FD0B0929FC0BB7
:100218000929FB0B0929000000004130BA0014200D
:100228001A30BD0003203330FB00BB30FC00DF3048
:10023800FD00FD0B1D29FC0B1D29FB0B1D290000D2
:0E0248000000E10A04306102031C95282A29F7
:10033000203084004F3083120313F00030308316D6
:10034000B8000130B9002B20A0308400183083128F
:100350000313F0007F308316B8000130B9002B2062
:02036000080093
:0802600041340D340A3400346E
:0A026800413454340D340A340034DC
:10027200413454342B3443344D34473453343D34B5
:10028200223430343934303433343234383439343B
:10029200323430343434303422340D340A340034BD
:1002A2005434453453345434203444344134543473
:1002B20041342034463452344F344D342034523495
:1002C2006834793464346F344C34413442345A34AF
:1002D2002D3443344F344334483449344E3400349B
:0202E2000034E6
:1002E400413454342B3443344D34473446343D3450
:0802F40031340D340A340034EA
:0202FC000034CC
:0E02FE0041345434453430340D340A34003465
:10030C00413454344434303439343034333432346A
:10031C003834393432343034343430340D340A34E3
:02032C0000349B
:02400E00022F7F
:00000001FF
