:020000001629BF
:0E000600533083120313FD00FD0B0728080082
:0C001400000000000000000000000800D8
:10002000243083120313FC00B530FD00FD0B1628AD
:0A003000FC0B162800000000080079
:10003A0083120313D31B2328861124288615531BE6
:10004A002828061129280615D31A2D2886102E28A5
:10005A008614531A32280610332806144C183728E7
:10006A0006163828061286160A208612D3193F2841
:10007A008611402886155319442806114528061565
:10008A00D318492886104A28861453184E28061071
:10009A004F2806144C18532806165428061286169A
:1000AA000A2086124C1C5B2810205C2803200800BA
:0E00BA00831203134B088A004A0882000800D4
:1000C800831203134C105208D3001D204C1408004F
:1000D8007E28803083120313CE009128C030CE00D2
:1000E80091289430CE009128D430CE0091288030C9
:1000F800CE009128831203134E08013A03196D2884
:100108004E08023A031972284E08033A0319752853
:100118004E08043A031978287B284F03F0004E084C
:10012800F0077008CE007008D3001D204C10D101D4
:1001380051085007840000080319AA2851085007DD
:1001480084000008D2006420D10A9C284C140800BE
:1001580083160313861206120610861006118611DE
:1001680083128612061286110611861006101020B8
:10017800102010208614061486160A2086121020D5
:1001880086160A208612102086160A20861210204B
:10019800061086160A208612102086160A20861255
:1001A8008610861586160A208612102086110614D7
:1001B80086160A208612061086160A208612102035
:1001C80086160A208612061486160A208612102021
:1001D800061086160A208612861506158614061439
:0C01E80086160A20861210204C14080015
:1001F4000D3083120313FB00AF30FC00B630FD005A
:10020400FD0B0229FC0B0229FB0B0229000008004C
:100214005D208A110A128000840ACA0A0319CB0AD3
:08022400F003031D0A29080084
:10022C00AC21AC200130D3001D200C30D3001D209C
:10023C000130CE000630CF004230D0006C200230AE
:10024C00CE000630CF003A30D0006C203330FB00AB
:10025C00BB30FC00DF30FD00FD0B3229FC0B3229DA
:10026C00FB0B3229000000000130D3001D200130AF
:10027C00CE000130CF002930D0006C200230CE00EF
:10028C000530CF002030D0006C203330FB00BB3069
:10029C00FC00DF30FD00FD0B5129FC0B5129FB0B41
:1002AC00512900000000CD0104304D0203186429CF
:1002BC001C30D3001D20FA20CD0A5A29CD0108305C
:1002CC004D0203186F291830D3001D20FA20CD0AD7
:1002DC006529CD0108304D0203187A291C30D30052
:0C02EC001D20FA20CD0A702964297B290E
:10035800203084002A3083120313F0008130CA0051
:080368000130CB000A2108005E
:1003020045346134733479345034493443343634A7
:020312000034B5
:100314006D3469346B3472346F3445346C34653401
:100324006B34743472346F346E3469346B346134C6
:02033400003493
:100336006534783461346D3470346C34653400342B
:100346004C34633464343434623469347434003481
:02400E004A2F37
:00000001FF
