:100000004FEF03F00000000000EF00F000000000E0
:0A0010000000000000000000F3D71C
:06001C0094928292120092
:100022000201196BFF0E1A6F1A530FE0000E82B213
:10003200010E016E195305E0015203E1010E006E3B
:0E004200120001C019F21A07EFD7006A12006F
:040050009482120084
:10005400010E0201196F800E195D06E282A202D020
:10006400198F01D0192BF7D7199F19C200F012006C
:100074000201146BEBDFECDF005203E114C200F069
:100084001200136B800E135D0BE282B004D082B2B7
:1000940002D0010E146F145301E002D0132BF2D7D7
:0C00A400145301E1B9DF14C200F0120097
:1000B0000B6A0A6A096A00500402F4CF09F0F3CF10
:1000C00008F001500502F4CF0BF0F3CF0AF0005016
:1000D0000502F3500926F4500A22E86A0B22015067
:1000E0000402F3500926F4500A22E86A0B2208C0E1
:1000F00000F009C001F00AC002F00BC003F01200CA
:100100000201156B010E166F176B186B010E036F52
:1001100003530BE086DF005207E082A003D00351B7
:100120001513167103370391F3D77BDF005204E0F8
:10013000000E82B0010E176F74DF005204E0000E53
:1001400082B0010E186F6ADF1651171904E11851B9
:10015000000A01E001D0156B13C2E1FF14C2E2FFF7
:0601600015C2E6FF1200CB
:10016600A6A202D00000FCD7A69C13C2A9FF14C207
:10017600A8FFA69EA684F2CF00F0F29E550EA76EAB
:10018600AA0EA76EA68200BE02D0F29E01D0F28E03
:04019600A694120019
:10019A0013C202F014C203F002C000F003C001F05F
:1001AA00024A032A00C0E9FF01C0EAFFEE5201E059
:1001BA00F3D702011351025C006E14510358016E09
:0A01CA00010E005E000E015A120043
:1001D4000201146B1351000A03E114C200F012006F
:1001E40007A321D0135168081EE27E0E135D1BE2A3
:1001F4001351770A18E0690E135D006E016A000E50
:10020400015A620E0024F66E120E0120F76E000EE3
:10021400F86E000E01BEFF0EF8220900F5CF00F0C3
:1002240000C014F21200130707AB19D0DF0E132518
:10023400F66E110EF76E000EF722000EF86E000E29
:10024400F8220900F5CF14F207A508D0145140088C
:1002540005E25B0E145D02E2200E142718D05C0E3A
:100264001325F66E110EF76E000EF722000EF86ECF
:10027400000EF8220900F5CF14F207A508D0145196
:10028400600805E27B0E145D02E2200E145F14C2C6
:0402940000F0120064
:10029800A69C13C2A9FFA69EA680A8CF00F01200B4
:1002A800010E0201136F00C214F259DF0201026B42
:1002B8000051025D1BE2020E0225136F6A0EE96E01
:1002C800000EEA6E0251E926D8B0EA2AEECF14F2FF
:1002D80046DF820E0C6EDD0E0D6E0D2EFED70C2E37
:1002E800FCD7000000000201022BE2D7020E022513
:1002F800136F200E146F33DF210E0C6E760E0D6E09
:100308000D2EFED70C2EFCD70000030E020102258D
:10031800136F200E146F23DF210E0C6E760E0D6EF8
:100328000D2EFED70C2EFCD70000040E020102256C
:10033800136F200E146F13DF210E0C6E760E0D6EE8
:100348000D2EFED70C2EFCD70000050E020102254B
:10035800136F200E146F03DF210E0C6E760E0D6ED8
:100368000D2EFED70C2EFCD70000060E020102252A
:10037800136F200E146FF3DE210E0C6E760E0D6EC9
:100388000D2EFED70C2EFCD70000070E0201022509
:10039800136F200E146FE3DE210E0C6E760E0D6EB9
:1003A8000D2EFED70C2EFCD70000080E02010225E8
:1003B800136F200E146FD3DE210E0C6E760E0D6EA9
:0C03C8000D2EFED70C2EFCD700001200FA
:1003D4000201016B070E0025016E026A000E022263
:1003E400800E006E800E0218005C02E10150015D77
:1003F4001EE26A0E096F000E0A6F01510927D8B078
:100404000A2B020E0125136F45DF09C2E1FF0AC260
:10041400E2FF00C0E6FF820E0C6EDD0E0D6E0D2EA7
:10042400FED70C2EFCD700000000012BD3D71200FE
:100434000900F5CFE6FF0006FBE10106F9E1120031
:0A044400948094820201076B1200FD
:10044E00086A080E0C6E003408360450085ED8B0E8
:0E045E0002D00826D89000360C2EF5D71200DA
:10046C0002010D6B040E0D5D3CE2010E0A6F000ED5
:10047C000B6F0C6B0A0E0C5D32E209C200F0000E21
:10048C00016E0A0E046E000E056E0CDE150E0024B5
:10049C00036E000E0120046E0DC200F0000E016E02
:1004AC0000360090013600500324E96E0150042000
:1004BC00EA6E0A51EE14016EEE500B15026E000E30
:1004CC00021802E1000E011802E1839001D0838032
:1004DC00838283920A370A910B370C2BCBD70D2BC7
:0804EC00C1D783848394120040
:1004F400220E0C6E086A096A0A6A0B6A0C06D8B4E2
:100504001FD0D8900B320A32093208320332023239
:1005140001320032D8A0F2D70C06D8B409D0045066
:1005240008260550092206500A2207500B22EAD752
:10053400045008260550092206500A2207500B22AF
:020544001200A3
:10054600010E0201116F010E126F106B0101FF6B9C
:100556008EDD005202E1006A12000F0E136F020ECA
:10056600146FCBDD0F51F00A0BE1126B80DD0052E8
:1005760001E1FCD70F0E136F020E146FBEDD30D0F3
:100586000F51E00A1AE173DD005201E1FCD70F0EAC
:10059600136F020E146FB1DD0F51F00A0AE1126BF0
:1005A60066DD005201E1FCD70F0E136F020E146FC9
:1005B600A4DD010E0101FF6F13D002010F51770A6E
:1005C6000AE1010E116F125305E007B302D007834B
:1005D60001D0079305D00F51E10A02E1E00E106F3A
:1005E6000101FF530BE002010F51120A02E1DF0E77
:1005F600106F0F517C0A02E1DF0E106F02010F51DE
:10060600120A04E00F51590A01E007D0010E116FDA
:10061600125302E0078B01D0079B07B305D00F5199
:10062600730A02E1006A12001051000A06E1116B1A
:100636000FC213F2CCDD00C010F21051E10A09E13D
:10064600010E116F125305E007B502D0078501D0E0
:1006560007951051C80804E2010E116FC80E105F0D
:1006660009C2E1FF0AC2E2FF10C2E6FF0BC2E1FFC8
:100676000CC2E2FF11C2E6FF0DC2E1FF0EC2E2FFAD
:0A06860012C2E6FF010E006E120022
:0E0690006A0E0201136F000E146F7FDD120060
:10069E003CEC09F0956A966A936AC26A816A836A2B
:1006AE00846AC9DE030E0B6E8A0E0C6E550E0D6E2D
:1006BE000D2EFED70C2EFCD70B2EFAD70000000005
:1006CE00010E136FE2DD00C000F27DDE016B070E3E
:1006DE000025016E026A000E0222800E006E800E50
:1006EE000218005C02E10150015DD8B0FDD201019B
:1006FE00FA6B66C004F00A0E006EA2DE0050FA5DC0
:10070E00D8B0EED2FE6B070EFE5DD8B0C1D2670E2A
:10071E000201096F000E0A6F690E0B6F000E0C6F4F
:10072E00680E0D6F000E0E6F07DF0052D8B4B9D0F1
:10073E0000016853D8B4B5D06751220AD8A4B1D0FD
:10074E00816A670E0201096F000E0A6F690E0B6F48
:10075E00000E0C6F680E0D6F000E0E6FEDDE005268
:10076E001EE0000168530AE067510D0A07E189DFB8
:10077E0000C000F292DD0001656B11D068530FE0EE
:10078E0069530DE167530BE06A0EE16E000EE26EE7
:10079E006551E126D8B0E22A67C0E6FF652B070E49
:1007AE000C6E7D0E0D6E00010D2EFDD70C2EFBD79F
:1007BE0067510D0AC6E1010E0201136F66DD00C01E
:1007CE0000F201DE016B0101FA6BFE6BFB6B080E92
:1007DE00FB5D67E2FBC100F0000E016E0A0E046EB7
:1007EE00000E056E5EDC150E0026000E0122080EB0
:1007FE000024E16E000E0120E26EE66AE66AFBC19D
:10080E0000F0000E016E0A0E046E000E056E49DC3D
:10081E00150E0026000E0122060E0024E16E000EBB
:10082E000120E26EE66AE66AFBC100F0000E016E80
:10083E000A0E046E000E056E34DC150E0026000E38
:10084E000122040E0024E16E000E0120E26EE66A23
:10085E00E66AFBC100F0000E016E0A0E046E000E79
:10086E00056E1FDC150E0026000E0122020E00245E
:10087E00E16E000E0120E26EE66AE66AFBC100F050
:10088E00000E016E0A0E046E000E056E0ADC150EC9
:10089E000024E16E000E0120E26EE66AE66AFB2B92
:1008AE0096D76A0EE96E000EEA6E02010151E92634
:1008BE00D8B0EA2AEECF02F002C0FDF10151010FCD
:1008CE00006E016A000E01226A0E0024E96E000E0F
:1008DE000120EA6EEECFFCF1200E025C006E016A82
:1008EE00000E015A000E01BEFF0E026E036E070EC1
:1008FE00046E000E056E066E076EF5DDFA0E00260E
:10090E000C0E0122000E02220101FE510024F66E91
:10091E00000E0120F76E000E0220F86E0900F5CFD2
:10092E0006F2200EFC5D006E016A000E015A000EEA
:10093E0001BEFF0E026E036E070E046E000E056EF4
:10094E00066E076ED0DDFA0E00260C0E0122000E8A
:10095E000222FE510024F66E000E0120F76E000EEC
:10096E000220F86E0900F5CF05F2FEC100F0000E70
:10097E00016E0A0E046E000E056E58EC00F0150E98
:10098E000024036E000E0120046E060E0324E16E99
:10099E00000E0420E26E060E0324E96E000E042003
:1009AE00EA6EEECF01F0EECF02F066C000F001C0AD
:1009BE0005F002C006F0005005E00536059006363B
:1009CE00FF0FFAD7040E0324E96E000E0420EA6E20
:1009DE00EECF03F0EECF04F0000166510A08006E70
:1009EE00016A000E015A00C002F003C000F004C0FC
:1009FE0001F0025005E001320032019EFF0FFAD7DE
:100A0E00055000120650011200C0E6FF01C0E6FFBD
:100A1E00FEC100F0000E016E0A0E046E000E056E91
:100A2E0058EC00F0150E0024036E000E0120046E2B
:100A3E00040E0324E16E000E0420E26E040E032465
:100A4E00E96E000E0420EA6EEECF01F0EECF02F05A
:100A5E0066C000F001C005F002C006F0005005E0CF
:100A6E00053605900636FF0FFAD70001020E032455
:100A7E00E96E000E0420EA6EEECF03F0EECF04F026
:100A8E0066510A08006E016A000E015A00C002F09B
:100A9E0003C000F004C001F0025005E00132003244
:100AAE00019EFF0FFAD7055000120650011200C02A
:100ABE00E6FF01C0E6FFFEC100F0000E016E0A0E59
:100ACE00046E000E056E58EC00F0150E0024036E39
:100ADE00000E0120046E020E0324E16E000E0420AF
:100AEE00E26E020E0324E96E000E0420EA6EEECFD3
:100AFE0001F0EECF02F066C000F001C005F002C0BA
:100B0E0006F0005005E0053605900636FF0FFAD7C1
:100B1E00000103C0E9FF04C0EAFFEECF03F0EECF01
:100B2E0004F066510A08006E016A000E015A00C0F8
:100B3E0002F003C000F004C001F0025005E00132E3
:100B4E000032019EFF0FFAD7055000120650011217
:100B5E0000C0E6FF01C0E6FF050E0101FA5D51E29D
:100B6E00FEC100F0000E016E0A0E046E000E056E40
:100B7E0058EC00F0150E0026000E012200C0E1FF19
:100B8E0001C0E2FF00C0E9FF01C0EAFFEECF02F0B4
:100B9E00EECF03F066C000F002C004F003C005F013
:100BAE00005005E0043604900536FF0FFAD7000119
:100BBE0066510508026E036A000E035A0101FA51CE
:100BCE0000016603F3CF00F0F4CF01F00050025C99
:100BDE00006E01500358016E00C001F006C200F015
:100BEE00015004E00032009EFF0FFBD7000E016E95
:100BFE00045000120550011200C0E6FF01C0E6FFCE
:100C0E0044D0FEC100F0000E016E0A0E046E000EFE
:100C1E00056E58EC00F0150E0024056E000E012036
:100C2E00066E05C0E9FF06C0EAFFEECF01F0EECF7B
:100C3E0002F066C000F001C003F002C004F00050E4
:100C4E0005E0033603900436FF0FFAD70101FA517F
:100C5E000908006E016A000E015A00C001F005C2BB
:100C6E0000F0015004E00032009EFF0FFBD7000E93
:100C7E00016E035000120450011205C0E1FF06C0C0
:100C8E00E2FF00C0E6FF01C0E6FF0101FE2B3BD5EF
:100C9E00050E0201046F0101FB6B020104510101FB
:100CAE00FB5D1CE2010E0201086F026B070E025D76
:100CBE0012E202C209F236EC02F008C281FF0837D6
:100CCE000891070E0C6E7D0E0D6E0D2EFED70C2E9E
:100CDE00FCD7022BEBD70101FB2BDFD7FA2B09D563
:0C0CEE00020E02010127F3D4F1D4FFD75D
:1012780010EE15F0E50E006E020E016E770EF66E9A
:0E1288000F0EF76E000EF86E1AEC02F0120058
:100CFA000000000000000000040404040004000ACC
:100D0A000A0A00000000000A1F0A1F0A00000E1447
:100D1A000E050E001012040812020000081408142E
:100D2A000A00040404000000000408080804000083
:100D3A0008040404080000000A040E040A0000045F
:100D4A00041F040400000000060408000000001E3E
:100D5A00000000000000000C0C0000020408100053
:100D6A0004040A0A0A0A0400040C0404040E000C0F
:100D7A00120204081E001E020C02120C00040C14BB
:100D8A001E0404001E101C02120C000C101C12126D
:100D9A000C001E0204040808000C120C12120C00AB
:100DAA000C12120E020C00000C0C000C0C00000CB1
:100DBA000C000C08000002040804020000001E00D7
:100DCA001E000000080402040800040A02040004C9
:100DDA00000C121616100C000C12121E1212001C15
:100DEA00121C12121C000C121010120C001C1212EF
:100DFA0012121C001E101C10101E001E101C1010B7
:100E0A0010000C121016120E0012121E12121200EC
:100E1A000E040404040E0002020202120C00121450
:100E2A00181814120010101010101E00121E1E1294
:100E3A00121200121A1A161612000C121212120CA0
:100E4A00001C12121C1010000C1212121A0C001C98
:100E5A0012121C1412000C120804120C000E0404C4
:100E6A000404040012121212120C00121212120CB2
:100E7A000C001212121E1E120012120C0C12120078
:100E8A000A0A0A040404001E020408101E000E08BE
:100E9A000808080E00001008040200000E020202F0
:100EAA00020E00040A000000000000000000001EFC
:100EBA00000804000000000000000E12160A0010CC
:100ECA00101C12121C0000001C10100C0002020E52
:100EDA0012120E0000000C16180C00040A081C0856
:100EEA000800000E120C100E0010101C1212120034
:100EFA0004000C04040E00020002020A040010108E
:100F0A0014181412000C040404040E000000141E29
:100F1A0012120000000C1212120000000C12120C25
:100F2A0000001C12121C1000000E12120E02000009
:100F3A00001C1210100000000E18061C0008081CE5
:100F4A000808060000001212120E0000000A0A0A1F
:100F5A000400000012121E1E000000120C0C1200E7
:0D0F6A000012120A04080000001E04081EF8
:100F7700000000000000000000000000000000006A
:100F8700000000000000000000000000000000005A
:100F9700000000000000000000000000000000004A
:100FA700000000000000000000000000000000003A
:100FB700000000000000000000000000000000002A
:010FC7000029
:010FC8000127
:010FC9000027
:010FCA000026
:010FCB000025
:100FCC004A4553555300000000000000000000008B
:100FDC000000000000000000000000000000000005
:100FEC0000000000000000000000000000000000F5
:100FFC0000000000000000000000000000000000E5
:10100C0000000000000000000000000000000000D4
:10101C0000000000000000000000000000000000C4
:10102C0000000000000000000000000000000000B4
:10103C0000000000000000000000000000000000A4
:10104C000000000000000000000000000000000094
:10105C000000000000000000000000000000000084
:10106C000000000000000000000000000000000074
:10107C000000000000000000000000000000000064
:10108C000000000000000000000000000000000054
:10109C000000000000000000000000000000000044
:1010AC000000000000000000000000000000000034
:1010BC000000000000000000000000000000000024
:1010CC000000000000000000000000000000000014
:1010DC000000000000000000000000000000000004
:1010EC0000000000000000000000000000000000F4
:1010FC0000000000000000000000000000000000E4
:10110C0000000000000000000000000000000000D3
:10111C0000000000000000000000000000000000C3
:10112C0000000000000000000000000000000000B3
:10113C0000000000000000000000000000000000A3
:10114C000000000000000000000000000000000093
:10115C00D100CDCBC9CAD4D3D2D0CECCEB60000059
:10116C00DEDD00DC71310000007A73617732DB0068
:10117C00637864653433DB00207666747235000066
:10118C006E62686779360000006D6A75373800004A
:10119C002C6B696F303900002E2F6C3B702D0000CA
:1011AC000027005B3D0000E1DDD55D005C00000028
:1011BC000000000000D80000E200E6E3000000D9C7
:1011CC00DAE935E7E8EAE5D32BD72D2AD6E4000097
:0311DC000000CF41
:1011DF00D100CDCBC9CAD400D2D0CECCEB7E00008B
:1011EF00DEDD00DC51210000005A53415740DB0087
:1011FF00435844452423DB00205646545225000013
:10120F004E424847595E0000004D4A55262A0000BD
:10121F003C4B494F292800003E3F4C3A505F00009D
:10122F000022007B2B0000E1DDD57D007C0000005B
:10123F000000000000D80000E200E6E3000000D943
:10124F00DAE935E7E8EAE5D32BD72D2AD6E4000013
:03125F000000CFBD
:1012620031003437000000302E32353638000000AD
:051272002B332D2A3989
:020000040030CA
:0E000000040C181EFF8381FF0FC00FE00F409D
:00000001FF
