:02000000A92B2A
:0E000600831203135E088A005D088200080062
:08001400831603138714080092
:10001C0001308312031793008030130203181F283A
:10002C000313871C1C28031793171E280317930A06
:0A003C00122893131308F0000800C7
:0C00460083160313871083128710080034
:10005200831203179301FF309400140803194428F4
:100062000030031387180130F10003171308031936
:1000720040287108031D40280130F0000800710873
:0A008200930094032E28F0010800FB
:10008C00831603178C1C4C2800004628831203137C
:10009C006E0803178D0003136F0803178C0083166B
:1000AC008C130C150B08F0008B1355308D00AA30F7
:1000BC008D008C14F01B64288B1365288B170C1186
:0200CC0008002A
:1000CE00831203136E0803178D0083168C130C1402
:0800DE0083120C08F000080079
:1000E60083120313EF01013003179000910192016F
:1000F60001300313D8000313580803199228292046
:100106007008031991280313071C8E285808EF045A
:100116000130031790060313D80D58107E282920A6
:10012600700803199C2800300313071801300317C1
:100136009100292070080319A62800300313071818
:100146000130031792002320031710081106031D20
:10015600B1281208003A0319B128B3280313EF0196
:0C01660003136E0884006F08800008007E
:1001720083120313EF016E08003A031DC3286F08B0
:10018200F0000800D71CE8286E08683C0318E8282D
:100192007E306E020318E8286E08773A0319E828C1
:1001A20069306E02F000F101031CF1030630F00722
:1001B20007300318013EF1077008DD007108DE0008
:1001C20003208A110A12F0007008EF000800EE0303
:1001D200D71E07296E08BB3EF00005300318013E0A
:1001E200F1007008DD007108DE0003208A110A1296
:1001F200EF00571D06296F08403C031806295B30A3
:100202006F02031806292030EF0722296E083E3EAE
:10021200F00006300318013EF1007008DD0071089D
:10022200DE0003208A110A12EF00571D22296F08EF
:10023200603C031822297B306F02031822292030E8
:08024200EF026F08F000080054
:10024A0083120313EF010A200E207008031D3129BF
:10025A0003136F08F00008000313EE0180306E02EA
:10026A000318432907183D2987183D290130EF0053
:10027A006F08031941294329EE0A33296F08031D20
:0A028A00472923206F08F000080048
:10029400831203137008F100F0010830FC007108A8
:1002A400F40C03185929FC0B5229F10100340310F2
:1002B4005E29F40C0318F107F10CF00CFC0B5B291C
:0202C400080030
:1002C60083120313CE0104305207F10053080318BA
:1002D600013EF2007208003C031D732971084E02AC
:1002E60003188C294E08A03EE70002304E07EE00A8
:1002F6006720031367088400700880002130FC0023
:100306007630FD00FD0B8529FC0B85290000CE0A01
:04031600662908004C
:10031A00013083120313EE005208EF004620213009
:10032A00FC007630FD00FD0B9829FC0B9829000093
:10033A0083120313DB015308003C031DA62952084C
:10034A005B020318BE2902305B07EE005B08A03E81
:10035A0084000008EF0046202130FC007630FD00C2
:10036A00FD0BB529FC0BB529000083120313DB0A28
:10037A00A02902305B07EE002030EF004620213032
:10038A00FC007630FD00FD0BC829FC0BC8290000D3
:10039A000330831203135B07EE002030EF00462080
:1003AA002130FC007630FD00FD0BD929FC0BD92940
:1003BA0000000430831203135B07EE002030EF00C5
:1003CA0046202130FC007630FD00FD0BEA29FC0BAB
:1003DA00EA2900000530831203135B07EE00203080
:1003EA00EF0046202130FC007630FD00FD0BFB2992
:0803FA00FC0BFB2900000800C8
:10040200013083120313EC000130ED00EB01D9013E
:1004120025217008031D0F2AF00108006A30EE0042
:1004220073206A08F03A031D202AED012521700885
:10043200031D1C2A172A6A30EE007320512A6A080B
:10044200E03A031D3C2A25217008031D292A242A8B
:100452006A30EE0073206A08F03A031D392AED0172
:1004620025217008031D362A312A6A30EE007320D6
:100472000130D900512A6A08773A031D4B2A01300C
:10048200EC006D0803194A2AD718492AD7144A2AB8
:10049200D710512A6A08E13A031D512AE030EB00D5
:1004A20059080319602A6A08123A031D5A2ADF30D2
:1004B200EB006A087C3A031D602ADF30EB006A0811
:1004C200123A0319692A6A08593A0319692A712AE0
:1004D2000130EC006D080319702AD716712AD71261
:1004E200D718792A6A08733A031D792AF00108009D
:1004F2006B08003A031D832AEC016A08EE00B9205A
:100502007008EB006B08E13A031D912A0130EC0000
:100512006D080319912A5719902A5715912A5711D4
:100522006B08C83C0318992A0130EC00C830EB0272
:10053200670884006B088000680884006C088000EB
:0E054200690884006D0880000130F000080098
:1005500083120313FB01FA01F9018030F800F10C5A
:10056000F00C031CBC2A7408F90775080318750FF2
:10057000FA070318FB0A0310F01FC42A7408FA07CD
:1005800075080318750FFB07FB0CFA0CF90CF80C37
:10059000031CAF2A7B08F3007A08F2007908F10007
:0605A0007808F0000800DD
:1005A60083120313E601053066020318FD2A0130A3
:1005B600E400E501083065020318FB2A6308F00031
:1005C6000530F4004A212330F007660870078400DE
:1005D60064080005F1007108003A031DF42A0810AA
:1005E600F52A081488148810E40D6410E50ADD2A3B
:0A05F600E60AD62A081508110800CD
:100600004D3083120313E7002130E8002030E90069
:10061000012270080319322B200803191B2B4D08E7
:100620000D3A031D1B2B2208D200D3018D2183120A
:100630000313A2012A2B200803192A2B2108031DCA
:100640002A2B4D0803192A2B2208A03E84004D08AE
:100650008000A20A20080319322B4D08103A031D0E
:10066000322BA2030730FC007D30FD00FD0B362B42
:10067000FC0B362B4D080D3A031D002B0130EE000C
:10068000672070080313D200D3016321CE01CF018C
:10069000D101D001083050020318842B5008F0001B
:1006A0000530F4004A212330F0070430700784003D
:1006B00080015008F0000530F4004A212330F00793
:1006C00003307007840080015008F0000530F4000A
:1006D0004A212330F007023070078400800150085F
:1006E000F0000530F4004A212330F007700A84003E
:1006F00080015008F0000530F4004A217008233EC4
:0A07000084008001D00A4A2B080093
:10070A0083120313F8010830FC00700DF80D740809
:10071A00F8020318922BF8070310F00DFC0B8A2B32
:02072A000800C5
:10072C0003208A110A128000840ADD0A0319DE0AEA
:08073C00F003031D962B0800D9
:0E07440083160313071487148312D7010800CD
:100752001C278316031388018901860183129F01D6
:10076200860188018901A2230330FB008A30FC0044
:100772005530FD00FD0BBB2BFC0BBB2BFB0BBB2B2E
:10078200000000000130EE00672070080313D20061
:10079200D3012130FC007630FD00FD0BCE2BFC0B8B
:1007A200CE2B000063214B08013A031DDE2B1530CE
:1007B200D2000030D3000130CC00CE010430520709
:1007C200F10053080318013EF2007208003C031DB9
:1007D200EC2B71084E020318B42DCF014C08F40023
:1007E2000830F000852370084F020318932DD101C1
:1007F2000730510203186A2D4D30E7002130E8001E
:100802002030E900012270080319142C4B08023A27
:10081200031D142C20080319142C4D08223A031D21
:10082200142C860100234B08013A031D282C4E0884
:10083200EF3EF00006300318013EF1007008DD00C3
:100842007108DE0003208A110A12DC003A2C4E08DD
:10085200A03E84000008F1007108DC002030710223
:10086200031C382C5C085A3C031C382C3A2C2030D0
:10087200DC0020305C02F000F101031CF1030730C0
:10088200F4000030F500A8220030F0070830031809
:10089200013EF1075108F0070318F10A7008DD0064
:1008A2007108DE0003208A110A12DA005108F000F2
:1008B2000530F4004A217008233EF200043072072A
:1008C200F400740884000008F1004C08F00071087C
:1008D200F30070080319712CF30D7310FF3E6B2C9B
:1008E2000330720784000008F2004C08083CF00054
:1008F200F101031CF1037008F1007208F0007108A5
:100902000319872CF00CF013FF3E812C7308F004BE
:1009120074088400700880005108F0000530F4006B
:100922004A217008233EF20003307207F400740873
:1009320084000008F1004C08F0007108F300700810
:100942000319A72CF30D7310FF3EA12C023072077E
:1009520084000008F2004C08083CF000F101031C7E
:10096200F1037008F1007208F00071080319BD2C40
:10097200F00CF013FF3EB72C7308F00474088400E7
:10098200700880005108F0000530F4004A21700818
:10099200233EF20002307207F4007408840000085B
:1009A200F1004C08F0007108F30070080319DD2C07
:1009B200F30D7310FF3ED72C720A84000008F20078
:1009C2004C08083CF000F101031CF1037008F1002F
:1009D2007208F00071080319F22CF00CF013FF3EBC
:1009E200EC2C7308F004740884007008800051082D
:1009F200F0000530F4004A217008233EF200720A2A
:100A0200F400740884000008F1004C08F00071083A
:100A1200F30070080319112DF30D7310FF3E0B2D17
:100A2200720884000008F2004C08083CF000F10152
:100A3200031CF1037008F1007208F0007108031939
:100A4200262DF00CF013FF3E202D7308F0047408DD
:100A52008400700880005108F0000530F4004A213B
:100A62002330F0077008E200700884000008F100EB
:100A72004C08F0007108E10070080319442DE10DE3
:100A82006110FF3E3E2D4C08083CDF00E001031CD4
:100A9200E0034F08F0004C08F4004A2170085F029E
:100AA200F0007108031C013E6002F1007008F100C1
:100AB2005A08F00071080319622DF00CF013FF3E82
:100AC2005C2D6108F0046208840070088000D10A7D
:100AD200F92B0630D5000030D600D0015608003C74
:100AE200031D752D550850020318912D0130D400B5
:100AF200DB0107305B0203188F2D5B08E300D32272
:100B020054088600D40D54100730FC007D30FD00DF
:100B1200FD0B892DFC0B892DDB0A7A2DD00A6F2D56
:100B2200CF0AEF2B4B08013A031DB22D4E08153A9E
:100B3200031DB22D0230CB000230CC000130EE009A
:100B4200672070080313D200D3012130FC007630F5
:100B5200FD00FD0BAA2DFC0BAA2D0000043052074C
:0A0B6200CE00CE0ADF2BDE2BB52DEE
:100E3800203084002E3083120313F000C130DD000F
:080E48000630DE0096230800CD
:100B7600D1340034CD34CB34C934CA34D4340034FF
:100B8600D234D034CE34CC34EB347E34003400341A
:100B9600DE34DD340034DC345134213400340034A6
:100BA60000345A345334413457344034DB3400343F
:100BB600433458344434453424342334DB34003449
:100BC60020345634463454345234253400340034F8
:100BD6004E3442344834473459345E340034003499
:100BE60000344D344A34553426342A340034003423
:100BF6003C344B3449344F342934283400340034DF
:100C06003E343F344C343A3450345F34003400348C
:100C16000034223400347B342B3400340034E13485
:100C2600DD34D5347D3400347C3400340034003473
:100C360000340034003400340034D8340034003436
:100C4600E2340034E634E334003400340034D9347A
:100C5600DA34E9343534E734E834EA34E534D33485
:100C66002B34D7342D342A34D634E43400340034CB
:060C760000340034CF340D
:100C7C00D1340034CD34CB34C934CA34D434D33425
:100C8C00D234D034CE34CC34EB3460340034003431
:100C9C00DE34DD340034DC3471343134003400346F
:100CAC0000347A347334613477343234DB340034C6
:100CBC00633478346434653434343334DB340034A2
:100CCC002034763466347434723435340034003461
:100CDC006E3462346834673479343634003400341A
:100CEC0000346D346A34753437343834003400349D
:100CFC002C346B3469346F34303439340034003470
:100D0C002E342F346C343B3470342D340034003496
:100D1C000034273400345B343D3400340034E13487
:100D2C00DD34D5345D3400345C34003400340034AC
:100D3C0000340034003400340034D834003400342F
:100D4C00E2340034E634E334003400340034D93473
:100D5C00DA34E9343534E734E834EA34E534D3347E
:100D6C002B34D7342D342A34D634E43400340034C4
:060D7C0000340034CF3406
:020D820000343B
:020D8400003439
:020D8600003437
:100D880000340034003400340034003400340034BB
:100D980000340034003400340034003400340034AB
:100DA800003400340034003400340034003400349B
:100DB800003400340034003400340034003400348B
:100DC800003400340034003400340034003400347B
:020DD8000134E4
:020DDA000234E1
:020DDC000034E1
:100DDE00533455344E344E344F344C342034453421
:100DEE004C3445344334543452344F344E344934F5
:0E0DFE00433453342034203420342034003465
:100E0C00313400343434373400340034003430346A
:100E1C002E34323435343634383400340034003423
:0A0E2C002B3433342D342A343934CA
:101000000034003400340034003400340034003440
:1010100004340434043404340034043400340A3412
:101020000A340A34003400340034003400340A3402
:101030001F340A341F340A34003400340E3414349C
:101040000E3405340E3400341034123404340834B1
:1010500012340234003400340834143408341434A4
:101060000A340034043404340434003400340034CA
:1010700000340434083408340834043400340034B0
:1010800008340434043404340834003400340034A4
:101090000A3404340E3404340A3400340034043482
:1010A00004341F3404340434003400340034003475
:1010B00006340434083400340034003400341E3460
:1010C00000340034003400340034003400340C3474
:1010D0000C34003400340234043408341034003446
:1010E000043404340A340A340A340A34043400342C
:1010F00004340C340434043404340E3400340C341A
:1011000012340234043408341E3400341E340234E1
:101110000C34023412340C34003404340C341434DF
:101120001E340434043400341E3410341C340234AD
:1011300012340C3400340C3410341C341234123495
:101140000C3400341E3402340434043408340834BB
:1011500000340C3412340C34123412340C34003495
:101160000C34123412340E3402340C340034003493
:101170000C340C3400340C340C34003400340C3493
:101180000C3400340C340834003400340234043499
:101190000834043402340034003400341E34003483
:1011A0001E3400340034003408340434023404346F
:1011B0000834003404340A3402340434003404346F
:1011C00000340C3412341634163410340C34003419
:1011D0000C34123412341E341234123400341C34E1
:1011E00012341C34123412341C3400340C341234D3
:1011F0001034103412340C3400341C3412341234D1
:10120000123412341C3400341E3410341C341034A4
:1012100010341E3400341E3410341C341034103496
:10122000103400340C3412341034163412340E34AA
:101230000034123412341E34123412341234003496
:101240000E3404340434043404340E3400340234D0
:1012500002340234023412340C34003412341434A4
:101260001834183414341234003410341034103458
:10127000103410341E34003412341E341E34123430
:1012800012341234003412341A341A341634163428
:10129000123400340C3412341234123412340C343C
:1012A00000341C34123412341C3410341034003422
:1012B0000C341234123412341A340C3400341C340A
:1012C000123412341C341434123400340C341234FA
:1012D0000834043412340C3400340E34043404342E
:1012E000043404340434003412341234123412340A
:1012F00012340C34003412341234123412340C34DC
:101300000C3400341234123412341E341E341234AD
:101310000034123412340C340C34123412340034CD
:101320000A340A340A3404340434043400341E34D5
:1013300002340434083410341E3400340E340834BB
:101340000834083408340E340034003410340834BF
:1013500004340234003400340E34023402340234D3
:1013600002340E34003404340A34003400340034BF
:1013700000340034003400340034003400341E34AF
:1013800000340834043400340034003400340034B1
:10139000003400340E34123416340A34003410345D
:1013A00010341C34123412341C3400340034003431
:1013B0001C34103410340C340034023402340E3433
:1013C000123412340E340034003400340C34163429
:1013D00018340C34003404340A3408341C3408340F
:1013E0000834003400340E3412340C3410340E340B
:1013F0000034103410341C341234123412340034DB
:10140000043400340C34043404340E340034023414
:101410000034023402340A340434003410341034FA
:10142000143418341434123400340C3404340434B6
:10143000043404340E3400340034003414341E34C4
:10144000123412340034003400340C3412341234A8
:1014500012340034003400340C34123412340634A4
:10146000003400341C34123412341C341034003470
:1014700000340E34123412340E340234003400348A
:1014800000341C341234103410340034003400346E
:101490000E34183406341C340034083408341C3438
:1014A0000834083406340034003400341234123462
:1014B00012340E340034003400340A340A340A344E
:1014C0000434003400340034123412341E341E3418
:1014D00000340034123412340A3404340834003432
:0C14E000003400341E34043408341E3480
:02400E00022F7F
:00000001FF
