:10000000C2EF03F00000000000EF00F0000000006D
:0A0010000000000000000000F3D71C
:10001C00010E02010C6F800E0C5D06E282A202D072
:10002C000C8F01D00C2BF7D70C9F0CC200F01200D8
:06003C0094928292120072
:1000420002010C6BFF0E0D6F0D530FE0000E82B21A
:10005200010E016E0C5305E0015203E1010E006E28
:0E006200120001C00CF20D07EFD7006A120069
:040070009482120064
:100074000201076B0651000A03E107C200F01200F7
:100084004FA221D0065168081EE27E0E065D1BE2D7
:100094000651770A18E0690E065D006E016A000ECB
:1000A400015A120E0024F66E120E0120F76E000E95
:1000B400F86E000E01BEFF0EF8220900F5CF00F025
:1000C40000C007F2120006074FAA19D0580E0625E1
:1000D400F66E110EF76E000EF722000EF86E000E8B
:1000E400F8220900F5CF07F24FA408D007514008C1
:1000F40005E25B0E075D02E2200E072718D0D50E3D
:100104000625F66E100EF76E000EF722000EF86E3E
:10011400000EF8220900F5CF07F24FA408D00751CA
:10012400600805E27B0E075D02E2200E075F07C24E
:0401340000F01200C5
:10013800A6A202D00000FCD7A69C06C2A9FF07C24F
:10014800A8FFA69EA684F2CF00F0F29E550EA76ED9
:10015800AA0EA76EA68200BE02D0F29E01D0F28E31
:04016800A694120047
:10016C00A69C06C2A9FFA69EA680A8CF00F01200EE
:10017C000201076B77DF4CDF005203E107C200F08E
:10018C001200066B800E065D0BE282B004D082B2C8
:10019C0002D0010E076F075301E002D0062BF2D7F5
:0C01AC00075301E145DF07C200F012001C
:1001B8000201086B010E096F0A6B0B6B010E01013E
:1001C800F76F0101F7530EE038DF00520AE082A012
:1001D80005D00101F7510201081309710101F73730
:1001E800F791EFD72ADF005204E0000E82B0010E2B
:1001F8000A6F23DF005204E0000E82B0010E0B6F7D
:1002080019DF09510A1904E10B51000A01E001D074
:10021800086B06C2E1FF07C2E2FF08C2E6FF120050
:10022800AECF01F0ABA202D0AB98AB8801C000F012
:020238001200B2
:10023A0006C202F007C203F002C000F003C001F0D8
:10024A00024A032A00C0E9FF01C0EAFFEE5201E0B8
:10025A00F3D702010651025C006E07510358016E82
:0A026A00010E005E000E015A1200A2
:100274000B6A0A6A096A00500402F4CF09F0F3CF4A
:1002840008F001500502F4CF0BF0F3CF0AF0005050
:100294000502F3500926F4500A22E86A0B220150A1
:1002A4000402F3500926F4500A22E86A0B2208C01B
:1002B40000F009C001F00AC002F00BC003F0120004
:0A02C400000E9EBA010E006E12003B
:1002CE000900F5CFE6FF0006FBE10106F9E1120099
:1002DE00086A080E0C6E003408360450085ED8B05A
:0E02EE0002D00826D89000360C2EF5D712004C
:1002FC00B20E0101F36F060EF46FFC0EF56F010EDA
:10030C00F66F280EEB6F020EEC6F000EED6F000E09
:10031C00EE6FC40EEF6F020EF06F000EF16F000E59
:10032C00F26FFF0EF86FFF0EF96F000EFA6F000EF2
:10033C00FB6FAC8A900EAB6E948E949C9EAA03D0ED
:08034C00AECF00F0FBD7120058
:08035400948094824F6A1200AC
:10035C004E6A050E5024016E000E5120026E000EE6
:10036C00006E0250005C02E101504E5C1FE2520E26
:10037C000101FC6F000EFD6F4E50FC27D8B0FD2B19
:10038C00020E4E240201066FEBDEFCC1E1FFFDC143
:10039C00E2FF00C0E6FF210E0C6E760E0D6E0D2EE8
:0E03AC00FED70C2EFCD700004E2AD3D712002D
:1003BA00010E0201046F010E056F036B0101EA6B66
:1003CA00D8DE005202E1006A1200020E066F020E27
:1003DA00076FEDDE0251F00A0BE1056BCADE00522F
:1003EA0001E1FCD7020E066F020E076FE0DE31D084
:1003FA000251E00A1AE1BDDE005201E1FCD7020E09
:10040A00066F020E076FD3DE0251F00A0AE1056B8E
:10041A00B0DE005201E1FCD7020E066F020E076F32
:10042A00C6DE010E0101EA6F14D002010251770AF9
:10043A000AE1010E046F055305E04FB202D04F8264
:10044A0001D04F9206D002010251E10A02E1E00E08
:10045A00036F0101EA530BE002010251120A02E1A1
:10046A00DF0E036F02517C0A02E1DF0E036F020105
:10047A000251120A04E00251590A01E007D0010EA2
:10048A00046F055302E04F8A01D04F9A4FB205D04C
:10049A000251730A02E1006A12000351000A06E1DE
:1004AA00046B02C206F2E1DD00C003F20351E10A65
:1004BA0009E1010E046F055305E04FB402D04F84E1
:1004CA0001D04F940351C80804E2010E046FC80E0C
:1004DA00035FFCC1E1FFFDC1E2FF03C2E6FFFEC10B
:1004EA00E1FFFFC1E2FF04C2E6FF00C2E1FF01C271
:0C04FA00E2FF05C2E6FF010E006E1200DA
:100506000201026B036B0201005349E00051FF0A2E
:10051600D8A40007D4DE0050000A01E1FBD781DE33
:1005260000C001F2020102510101FC25E16E000E3C
:10053600FD21E26E00C0E6FF0201022B035101011C
:10054600FE25E96E000EFF21EA6EEE50020101194A
:1005560002E1032B09D0036BFEC1E9FFFFC1EAFFED
:10056600EE500119D8B4032B03510101FE25E96EA3
:10057600000EFF21EA6EEE50000A10E1020103515F
:10058600025D006E016A000E015A00500101FC2551
:10059600E16E0150FD21E26EE66A1200B4D7FCC19D
:0A05A600E1FFFDC1E2FFE66A12006A
:1005B000010E0201066F50C007F2BEDD0101E66BBD
:1005C000000E006E5150005C02E15050E65D1CE2EE
:1005D000020EE6250201066F520EE96E000EEA6E6B
:1005E0000101E651E926D8B0EA2AEECF07F2A4DDF0
:1005F000210E0C6E760E0D6E0D2EFED70C2EFCD736
:1006000000000101E62BDCD7020EE6250201066F91
:10061000200E076F91DD210E0C6E760E0D6E0D2EE5
:10062000FED70C2EFCD70000030E0101E6250201C7
:10063000066F200E076F80DD210E0C6E760E0D6E9C
:100640000D2EFED70C2EFCD70000040E0101E6256E
:100650000201066F200E076F6FDD210E0C6E760E05
:100660000D6E0D2EFED70C2EFCD70000050E0101DD
:10067000E6250201066F200E076F5EDD210E0C6E6F
:10068000760E0D6E0D2EFED70C2EFCD70000060E3A
:100690000101E6250201066F200E076F4DDD210ED8
:1006A0000C6E760E0D6E0D2EFED70C2EFCD70000B4
:0206B000120036
:0E06B200ACB202D00000FCD7FCC1ADFF1200BC
:1006C0000101FF6B060EFF5D2AE2010EFD6FFE6B5E
:1006D000080EFE5D22E2FCC100F0000E016E060E67
:1006E000046E000E056EC6DD180E0026000E0122F7
:1006F000FF510024E96E000E0120EA6EFD51EE1458
:10070000016E0150000A02E1839001D08380838250
:100710008392FD37FD91FE2BDBD7FF2BD3D783844C
:0407200083941200AC
:10072400220E0C6E086A096A0A6A0B6A0C06D8B4AF
:100734001FD0D8900B320A32093208320332023207
:1007440001320032D8A0F2D70C06D8B409D0045034
:1007540008260550092206500A2207500B22EAD720
:10076400045008260550092206500A2207500B227D
:02077400120071
:0E077600520E0201066F000E076F5CDD1200CE
:1007840014EC09F0956A966A936AC26A816A836A6C
:10079400846A0A0EAF6EAC84AFDD030E0B6E8A0E54
:1007A4000C6E550E0D6E0D2EFED70C2EFCD70B2E97
:1007B400FAD700000000CCDD030E0B6E8A0E0C6E1F
:1007C400550E0D6E0D2EFED70C2EFCD70B2EFAD720
:1007D40000000000010E0201066FC6DC00C050F0EC
:1007E400000E516EB9DD4E6A050E5024016E000EE6
:1007F4005120026E000E006E0250005C02E10150B6
:100804004E5CD8B095D34C6A15C004F0080E006E47
:1008140064DD00504C5CD8B089D34D6A070E4D5C42
:10082400D8B05AD3170E0101FC6F000EFD6F160EDF
:10083400FE6F000EFF6F490E0201006F000E016F84
:10084400BADD0052D8B4CED04952D8B4CBD0175068
:10085400220AD8A4C7D0816A170E0101FC6F000ECA
:10086400FD6F160EFE6F000EFF6F490E0201006F42
:10087400000E016FA0DD005223E049520AE0175038
:100884000D0A07E148C050F0000E516E8FDE486A31
:1008940011D049520FE016520DE117520BE0520EDF
:1008A400E16E000EE26E4850E126D8B0E22A17C08D
:1008B400E6FF482A495204E01750100AD8B4480603
:1008C400070E0C6E7D0E0D6E0D2EFED70C2EFCD772
:1008D40017500D0AC1E1010E0201066F45DC00C08C
:1008E40050F0000E516E38DD4E6A4C6A4D6A0101BB
:1008F400E86B080EE85D76E2E8C100F0000E016ED8
:10090400060E046E000E056EB3DC180E0026000EF3
:100914000122050E0024E16E000E0120E26EE66A5B
:10092400E8C100F0000E016E060E046E000E056EA6
:100934009FDC180E0026000E0122040E0024E16E36
:10094400000E0120E26EE66AE8C100F0000E016EBE
:10095400060E046E000E056E8BDC180E0026000ECB
:100964000122030E0024E16E000E0120E26EE66A0D
:10097400E8C100F0000E016E060E046E000E056E56
:1009840077DC180E0026000E0122020E0024E16E10
:10099400000E0120E26EE66AE8C100F0000E016E6E
:1009A400060E046E000E056E63DC180E0026000EA3
:1009B4000122010E0024E16E000E0120E26EE66ABF
:1009C400E8C100F0000E016E060E046E000E056E06
:1009D4004FDC180E0024E16E000E0120E26EE66A80
:1009E400E82B87D76DDC0052D8B49BD01BDC00C049
:1009F400E9F100506B0AD8A494D0790E0101FC6F80
:100A040056DE816A5DDC005201E1FCD7520E010121
:100A1400FC6F000EFD6F4A0EFE6F000EFF6FFF0E9F
:100A24000201006F6EDDA5DE00C050F0000E516EB5
:100A3400BDDD010E0201066FB6EC00F000C050F0FF
:100A4400000E516E89DC4E6A4C6A4D6A0101E86BF6
:100A5400080EE85D66E2E8C100F0000E016E060EC5
:100A6400046E000E056E04DC180E0026000E012232
:100A7400040E0024E16E000E0120E26EE66AE8C175
:100A840000F0000E016E060E046E000E056E3AECC8
:100A940001F0180E0026000E0122030E0024E16E60
:100AA400000E0120E26EE66AE8C100F0000E016E5D
:100AB400060E046E000E056E3AEC01F0180E0026C8
:100AC400000E0122020E0024E16E000E0120E26EEF
:100AD400E66AE8C100F0000E016E060E046E000E18
:100AE400056E3AEC01F0180E0026000E0122010EEC
:100AF4000024E16E000E0120E26EE66AE8C100F017
:100B0400000E016E060E046E000E056E3AEC01F046
:100B1400180E0024E16E000E0120E26EE66AE82B56
:100B240097D7520EE96E000EEA6E4E50E926D8B001
:100B3400EA2AEECF01F001C0E3F1200E015C05E3E7
:100B44000101E3515A0801E303D00101200EE36FD0
:100B5400200EE35D006E016A000E015A000E01BE14
:100B6400FF0E026E036E070E046E000E056E066E17
:100B7400076ED6DD380E00260F0E0122000E02226B
:100B84004D500024F66E000E0120F76E000E022078
:100B9400F86E0900F5CFE2F14DC000F0000E016ED1
:100BA400060E046E000E056E3AEC01F0180E0024D9
:100BB400026E000E0120036E050E0224056E000E67
:100BC4000320066E05C0E9FF06C0EAFFEECF01F080
:100BD40015C000F001C004F0005004E00436049095
:100BE400FF0FFBD7040E0224E96E000E0320EA6E09
:100BF400EECF02F015500808006E016A000E015A8B
:100C040000C001F002C000F0015004E00032009E78
:100C1400FF0FFBD70450001205C0E1FF06C0E2FF3E
:100C240000C0E6FF4DC000F0000E016E060E046E1B
:100C3400000E056E3AEC01F0180E0024026E000E50
:100C44000120036E040E0224056E000E0320066EBE
:100C540005C0E9FF06C0EAFFEECF01F015C000F0C1
:100C640001C004F0005004E004360490FF0FFBD7E9
:100C7400030E0224E96E000E0320EA6EEECF02F0AA
:100C840015500808006E016A000E015A00C001F0F8
:100C940002C000F0015004E00032009EFF0FFBD7B9
:100CA4000450001205C0E1FF06C0E2FF00C0E6FFE9
:100CB4004DC000F0000E016E060E046E000E056EAF
:100CC4003AEC01F0180E0024026E000E0120036EAF
:100CD400030E0224056E000E0320066E05C0E9FF14
:100CE40006C0EAFFEECF01F015C000F001C004F029
:100CF400005004E004360490FF0FFBD7020E0224D8
:100D0400E96E000E0320EA6EEECF02F015500808DB
:100D1400006E016A000E015A00C001F002C000F02A
:100D2400015004E00032009EFF0FFBD70450001274
:100D340005C0E1FF06C0E2FF00C0E6FF4DC000F0C1
:100D4400000E016E060E046E000E056E3AEC01F004
:100D5400180E0024026E000E0120036E020E0224FF
:100D6400056E000E0320066E05C0E9FF06C0EAFF0B
:100D7400EECF01F015C000F001C004F0005004E013
:100D840004360490FF0FFBD7010E0224E96E000E17
:100D94000320EA6EEECF02F015500808006E016AD7
:100DA400000E015A00C001F002C000F0015004E03E
:100DB4000032009EFF0FFBD70450001205C0E1FF74
:100DC40006C0E2FF00C0E6FF4DC000F0000E016E59
:100DD400060E046E000E056E3AEC01F0180E0024A7
:100DE400026E000E0120036E010E0224056E000E39
:100DF4000320066E05C0E9FF06C0EAFFEECF01F04E
:100E040015C000F001C004F0005004E00436049062
:100E1400FF0FFBD702C0E9FF03C0EAFFEECF02F0E9
:100E240015500808006E016A000E015A00C001F056
:100E340002C000F0015004E00032009EFF0FFBD717
:100E44000450001205C0E1FF06C0E2FF00C0E6FF47
:100E54004DC000F0000E016E060E046E000E056E0D
:100E64003AEC01F0180E0026000E012200C0E1FF4A
:100E740001C0E2FF00C0E9FF01C0EAFFEECF01F0CC
:100E840015C000F001C004F0005004E004360490E2
:100E9400FF0FFBD715500808026E036A000E035AB1
:100EA4004C501502F3CF00F0F4CF01F00050025C77
:100EB400006E01500358016E00C001F0E2C100F061
:100EC400015004E00032009EFF0FFBD704500012D3
:100ED40000C0E6FF4D2AA2D40101050EE46F000E06
:100EE400E56FE86B000E006EE551005C02E1E45131
:100EF400E85D1AE2010EE76FE66B070EE65D12E2AB
:100F0400E6C1FCF160EC03F0E7C18AFFE737E79143
:100F1400070E0C6E7D0E0D6E0D2EFED70C2EFCD71B
:100F2400E62BEBD7E82BDED74C2A6ED44E2A5CD4C2
:040F34005AD4FFD7B5
:1012280010EE15F0370E006E010E016EDB0EF66E35
:0E123800110EF76E000EF86E67EC01F012005A
:100F38000000000000000000040404040004000A8B
:100F48000A0A00000000000A1F0A1F0A00000E1407
:100F58000E050E00101204081202000008140814EE
:100F68000A00040404000000000408080804000043
:100F780008040404080000000A040E040A0000041F
:100F8800041F040400000000060408000000001EFE
:100F9800000000000000000C0C0000020408100013
:100FA80004040A0A0A0A0400040C0404040E000CCF
:100FB800120204081E001E020C02120C00040C147B
:100FC8001E0404001E101C02120C000C101C12122D
:100FD8000C001E0204040808000C120C12120C006B
:100FE8000C12120E020C00000C0C000C0C00000C71
:100FF8000C000C08000002040804020000001E0097
:101008001E000000080402040800040A0204000488
:10101800000C121616100C000C12121E1212001CD4
:10102800121C12121C000C121010120C001C1212AE
:1010380012121C001E101C10101E001E101C101076
:1010480010000C121016120E0012121E12121200AC
:101058000E040404040E0002020202120C00121410
:10106800181814120010101010101E00121E1E1254
:10107800121200121A1A161612000C121212120C60
:10108800001C12121C1010000C1212121A0C001C58
:1010980012121C1412000C120804120C000E040484
:1010A8000404040012121212120C00121212120C72
:1010B8000C001212121E1E120012120C0C12120038
:0D10C8000A0A0A040404001E020408101E97
:1010D500D100CDCBC9CAD4D3D2D0CECCEB600000E1
:1010E500DEDD00DC71310000007A73617732DB00F0
:1010F500637864653433DB002076667472350000EE
:101105006E62686779360000006D6A7537380000D1
:101115002C6B696F303900002E2F6C3B702D000051
:101125000027005B3D0000E1DDD55D005C000000AF
:101135000000000000D80000E200E6E3000000D94E
:10114500DAE935E7E8EAE5D32BD72D2AD6E400001E
:031155000000CFC8
:10115800D100CDCBC9CAD400D2D0CECCEB7E000012
:10116800DEDD00DC51210000005A53415740DB000E
:10117800435844452423DB0020564654522500009A
:101188004E424847595E0000004D4A55262A000045
:101198003C4B494F292800003E3F4C3A505F000025
:1011A8000022007B2B0000E1DDD57D007C000000E3
:1011B8000000000000D80000E200E6E3000000D9CB
:1011C800DAE935E7E8EAE5D32BD72D2AD6E400009B
:0311D8000000CF45
:0111DB000211
:0111DC000012
:0111DD000011
:1011DE000000000000000000000000000000000001
:1011EE0000000000000000000000000000000000F1
:1011FE0000000000000000000000000000000000E1
:01120E0000DF
:01120F0000DE
:021210002300B9
:1012120031003437000000302E32353638000000FD
:051222002B332D2A39D9
:020000040030CA
:0D000100220C0EFF0181FF0FC00FE00F4029
:00000001FF
