:02000000E428F2
:10000800FF00030E8301A5000A08A4008A01240842
:0C0018008A00250E8300FF0E7F0E0900F9
:0E0024008312031321088A00200882000800BE
:1000320083120313FB01FA01F9018030F800F10C7D
:10004200F00C031C2D287408F90775080318750FA6
:10005200FA070318FB0A0310F01F35287408FA0781
:1000620075080318750FFB07FB0CFA0CF90CF80C5A
:10007200031C20287B08F3007A08F2007908F100BB
:060082007808F000080000
:0C008800831203139B011D129D1208003F
:10009400831603138710831212150C309D04080075
:1000A400831603130711831212150C3097040800EA
:0C00B40083120313950117129712080025
:1000C000831603131208013EF000F1010318F10A30
:1000D00083122608F400F50119200630F20070089A
:1000E000F4007108F500720803197B28F50CF40C74
:1000F000F513FF3E74280430F1007408F000710815
:1001000003198628F00D7010FF3E80288312031318
:1001100030307005F3007408F0007508F100F10C40
:10012000F00CF113F10CF00CF113700895000F3086
:0801300097057308970408000D
:10013800831603131208013EF000F1010318F10AB7
:1001480083122608F400F50119200630F200700821
:10015800F4007108F50072080319B728F50CF40CBF
:10016800F513FF3EB0280430F1007408F000710860
:100178000319C228F00D7010FF3EBC288312031328
:1001880030307005F3007408F0007508F100F10CC8
:10019800F00CF113F10CF00CF11370089B000F3008
:0801A8009D0573089D04080089
:1001B00012208A110A128000840AA00A0319A10AD7
:0801C000F003031DD82808001C
:1001C800831203138601831686018312870183161F
:1001D80087010130831290000C10FF308F004C30E3
:1001E8008E0083160C148312121492149C308316FA
:1001F80092005A20121492149C30831692004420C4
:100208003230A3003230A20052204A202308A60030
:0A02180060202208A6009C20102997
:02400E000A2F77
:00000001FF
