:02000000E728EF
:100006008316031398180928000003288312600832
:040016009900080045
:10001A00831203137008F100F0010830FC00710824
:10002A00F40C03181C28FC0B1528F10100340310EA
:10003A002128F40C0318F107F10CF00CFC0B1E2814
:02004A000800AC
:0E004C008312031350088A004F088200080038
:10005A0083120313600803178D0083168C130C1484
:08006A0083120C08F0000800ED
:1000720083120313CE0104305107F1005208031812
:10008200013EF2007208003C031D492871084E022D
:10009200031859284E08A03EDC0002304E07E0004B
:1000A2002D2003135C08840070088000CE0A3C28CF
:0200B200080044
:1000B40083120313DD0105305D020318B9285D08BE
:1000C400043A031DAA285C08F0000530F4000D2052
:1000D4007008203EF2000330720784000008F1002B
:1000E4007108DE00DE0D5E10DE0D5E100230720758
:1000F400F100710884000008F000701B83285E1072
:1001040084285E14710884000008F000F01B8C2819
:10011400DE108D28DE1404307207F10071088400AB
:100124000008F000701B98285F1099285F1471086C
:1001340084000008F000F01BA128DF10A228DF14BF
:100144000D30E00003205E0888005F088500080089
:100154005C08F0000530F4000D202030F0075D0845
:10016400700784000008E0000320DD0A5D28080011
:1001740026208A110A128000840ACF0A0319D00AA1
:08018400F003031DBA28080076
:10018C0083120313F8010830FC00700DF80D74088D
:10019C00F8020318D328F8070310F00DFC0BCB283A
:0201AC00080049
:1001AE0083160313981690308312980083168717C0
:1001BE00071383128C1EE6281A08F000E0280800A8
:1001CE007E268316031388018030870089018601FD
:1001DE0083129F01860188018701403083169900A2
:1001EE001815D7200330FB008A30FC005530FD0077
:1001FE00FD0BFF28FC0BFF28FB0BFF280000000067
:10020E00E0012D2070080313C8007008013A031D89
:10021E0019290130E0002D2070080313D100D201FE
:10022E0039201C299C30D100D201CE010430510757
:10023E00F10052080318013EF2007208003C031D43
:10024E002A2971084E020318B82AD4014908F4006D
:10025E000830F000C620700854020318B62AD501E3
:10026E000830550203188D2A4808013A031D452906
:10027E004E08A03E84000008D30054294E08B73E15
:10028E00F00005300318013EF1007008CF00710830
:10029E00D00026208A110A12D30020305302F30018
:1002AE00F401031CF4030330F2007308F000740829
:1002BE00F100720803196829F00DF10D7010FF3E60
:1002CE006129BF30F00702300318013EF1075508CF
:1002DE00F0070318F10A7008CF007108D00026202D
:1002EE008A110A12CB005508F0000530F4000D20DB
:1002FE007008203EF20004307207F4007408840087
:10030E000008F1004908F0007108F30070080319A5
:10031E009429F30D7310FF3E8E290330720784006B
:10032E000008F2004908083CF000F101031CF1033B
:10033E007008F1007208F00071080319AA29F00C78
:10034E00F013FF3EA4297308F004740884007008AB
:10035E0080005508F0000530F4000D207008203E96
:10036E00F20003307207F400740884000008F100F4
:10037E004908F0007108F30070080319CA29F30D3B
:10038E007310FF3EC4290230720784000008F20089
:10039E004908083CF000F101031CF1037008F1005C
:1003AE007208F00071080319E029F00CF013FF3EFB
:1003BE00DA297308F0047408840070088000550868
:1003CE00F0000530F4000D207008203EF2000230DF
:1003DE007207F400740884000008F1004908F00068
:1003EE007108F30070080319002AF30D7310FF3E15
:1003FE00FA29720A84000008F2004908083CF0004D
:10040E00F101031CF1037008F1007208F00071088D
:10041E000319152AF00CF013FF3E0F2A7308F0048F
:10042E0074088400700880005508F0000530F40050
:10043E000D207008203EF200720AF4007408840049
:10044E000008F1004908F0007108F3007008031964
:10045E00342AF30D7310FF3E2E2A72088400000812
:10046E00F2004908083CF000F101031CF10370088A
:10047E00F1007208F00071080319492AF00CF0130C
:10048E00FF3E432A7308F00474088400700880004D
:10049E005508F0000530F4000D202030F0077008EC
:1004AE00DB00700884000008F1004908F0007108B4
:1004BE00DA0070080319672ADA0D5A10FF3E612A16
:1004CE004908083CD800D901031CD9035408F00090
:1004DE004908F4000D2070085802F0007108031C42
:1004EE00013E5902F1007008F1004B08F00071084E
:1004FE000319852AF00CF013FF3E7F2A5A08F004E8
:10050E005B08840070088000D50A37290A30CC00B9
:10051E000030CD00CA014D08003C031D982A4C083E
:10052E004A020318B42A0130D700D6010830560209
:10053E000318B22A5608DC005A2057098600D70D38
:10054E0057100730FC007D30FD00FD0BAC2AFC0B74
:10055E00AC2AD60A9D2ACA0A922AD40A2D29CE0A74
:06056E001D291C29B92A19
:100CFC00203084002A3083120313F0005430CF00CC
:080D0C000630D000BA200800F7
:10057E0000340034003400340034003400340034CD
:10058E0004340434043404340434043400340434A1
:10059E000A340A340A34003400340034003400348F
:1005AE0000340A341F340A341F340A341F340A3418
:1005BE0007340C3414340C340634053406341C342D
:1005CE0019341A3402340434043408340B3413341A
:1005DE0006340A34123414340934163416340934F9
:1005EE000434043404340034003400340034003451
:1005FE000234043408340834083408340434023421
:10060E00083404340234023402340234043408341C
:10061E0015340E341F340E341534003400340034C7
:10062E0000340034043404341F34043404340034ED
:10063E0000340034003400340034063404340834FA
:10064E0000340034003400340E34003400340034EE
:10065E0000340034003400340034003400340434E8
:10066E0001340234023404340434083408341034AF
:10067E000E341134133411341534113419340E343C
:10068E0004340C34143404340434043404341F3469
:10069E000E341134113402340434083410341F343F
:1006AE000E34113401340E340134013411340E344D
:1006BE0010341034143414341F3404340434043419
:1006CE001F34103410341E340134013401341E34FE
:1006DE000734083410341E341134113411340E34EE
:1006EE001F3401340134013402340434083410341C
:1006FE000E34113411340E341134113411340E34CD
:10070E000E34113411340F340134013401340134F8
:10071E00003404340434003400340434043400341B
:10072E000034043404340034003404340434083403
:10073E0001340234043408340834043402340134ED
:10074E000034003400341E3400341E3400340034BF
:10075E0010340834043402340234043408341034AF
:10076E000E3411341134023404340434003404349D
:10077E000E341134113415341534113411341E3431
:10078E000E341134113411341F3411341134113428
:10079E001E34113411341E341134113411341E34FC
:1007AE00073408341034103410341034083407343D
:1007BE001C341234113411341134113412341C34EB
:1007CE001F34103410341E341034103410341F34CF
:1007DE001F34103410341E341034103410341034CE
:1007EE000E341134103410341734113411340E34D5
:1007FE001134113411341F341134113411341134B5
:10080E001F340434043404340434043404341F34E4
:10081E001F340434043404340434043414340834DB
:10082E001134123414341834143412341134113483
:10083E0010341034103410341034103410341F347B
:10084E0011341B341F341534113411341134113456
:10085E001134193419341534153413341334113446
:10086E000E341134113411341134113411340E3458
:10087E001E34113411341E3410341034103410342C
:10088E000E341134113411341134153413340F3431
:10089E001E34113411341E34143412341134113404
:1008AE000E341134103408340634013411340E343D
:1008BE001F3404340434043404340434043404344F
:1008CE0011341134113411341134113411340E34F5
:1008DE001134113411341134113411340A340434F6
:1008EE0011341134113411341134153415340A34D1
:1008FE00113411340A34043404340A3411341134EA
:10090E00113411340A3404340434043404340434F9
:10091E001F340134023404340834103410341F34BC
:10092E000E340834083408340834083408340E34CD
:10093E0010340834083404340434023402340134DC
:10094E000E340234023402340234023402340E34D1
:10095E0004340A34113400340034003400340034CA
:10096E0000340034003400340034003400341F34BA
:10097E0008340434003400340034003400340034BD
:10098E000034003400340E341234123412340F3466
:10099E0000341034103410341C34123412341C341D
:1009AE000034003400340E341034103410340E344D
:1009BE000034013401340134073409340934073466
:1009CE000034003400341C3412341E3410340E340F
:1009DE00003403340434043406340434043404344C
:1009EE0000340E340A340A340E34023402340C3419
:1009FE0000341034103410341C34123412341234C7
:100A0E000034003404340034043404340434043424
:100A1E0000340234003402340234023402340C3412
:100A2E000034103410341434183418341434103490
:100A3E0000341034103410341034103410340C349C
:100A4E000034003400340A341534113411341134A6
:100A5E0000340034003414341A3412341234123484
:100A6E000034003400340C341234123412340C348A
:100A7E0000341C34123412341C341034103410343C
:100A8E0000340E34123412340E3402340234013473
:100A9E000034003400340A340C340834083408347A
:100AAE00003400340E3410340834043402341E344E
:100ABE000034103410341C341034103410340C3410
:100ACE0000340034003412341234123412340C3424
:100ADE000034003400341134113411340A34043427
:100AEE0000340034003411341134113415340A3406
:100AFE0000340034003411340A3404340A3411340E
:100B0E000034003411340A340434083408341034F8
:100B1E000034003400341F340234043408341F34DB
:100B2E0002340434043404340834043404340234F7
:100B3E0004340434043404340434043404340434E7
:100B4E0008340434043404340234043404340834D1
:100B5E000034003400340A341E34143400340034AB
:100B6E004134413441344134203441344134203411
:100B7E004134203444344434443444344E345334B5
:100B8E00543452344134543449344F344E34203476
:100B9E004F344634203441344E34203438345834B3
:100BAE003434303420344C344534443420344D34D1
:100BBE004134543452344934583420344434493452
:100BCE00533450344C344134593420345534533426
:100BDE0049344E344734203453344834493446343F
:100BEE005434203452344534473449345334543415
:100BFE00453452345334203441344E34443420344A
:100C0E005034493443343134363446343134383444
:100C1E003434373420344D344934433452344F3421
:100C2E0043344F344E34543452344F344C344C34A9
:100C3E00453452342E34203446344F34523420341A
:100C4E004D344F34523445342034443445345434C6
:100C5E00413449344C3453342034563449345334AB
:100C6E004934543420345734573457342E344534A1
:100C7E004D344234453444344434453444342D34B4
:100C8E004C34413442342E3443344F344D342E34AC
:0A0C9E0020342034203420340034C8
:100CA800003400340034003400340034003400349C
:100CB800003400340034003400340034003400348C
:100CC800003400340034003400340034003400347C
:100CD800003400340034003400340034003400346C
:100CE800003400340034003400340034003400345C
:020CF8000034C6
:020CFA000134C3
:02400E004A2F37
:00000001FF
