:02000000A22834
:10000800FF00030E8301A6000A08A7008A01013039
:10001800A10007140C10FF308F0005308E00270850
:0C0028008A00260E8300FF0E7F0E0900E8
:0E0034008312031324088A00230882000800A8
:1000420083120313FB01FA01F9018030F800F10C6D
:10005200F00C031C35287408F90775080318750F8E
:10006200FA070318FB0A0310F01F3D287408FA0769
:1000720075080318750FFB07FB0CFA0CF90CF80C4A
:10008200031C28287B08F3007A08F2007908F100A3
:060092007808F0000800F0
:0C00980083120313950117129712080041
:1000A400831603131208013EF000F1010318F10A4C
:1000B40083122808F400F50121200630F2007008AC
:1000C400F4007108F500720803196D28F50CF40C9E
:1000D400F513FF3E66280430F1007408F00071083F
:1000E40003197828F00D7010FF3E72288312031351
:1000F40030307005F3007408F0007508F100F10C5D
:10010400F00CF113F10CF00CF113700895000F30A2
:08011400970573089704080029
:10011C001A208A110A128000840AA30A0319A40A5D
:08012C00F003031D8E280800FA
:10013400831603130711831212150C309704080059
:1001440083160313860183128701860183168701B0
:100154008501831285010C10FF308F0005308E005D
:1001640083160C148B170B178312A501A001A10190
:1001740012109210F930831692004C20093090002E
:100184002508363EF00001300318013EF1007008E6
:10019400A3007108A4001A208A110A12A800522090
:1001A4009A202108013A031D3429250886002508D0
:1001B400003A031DF6282008013A031DF6281030E2
:1001C4008706A001A2092508363EF0000130031875
:1001D400013EF1007008A3007108A4001A208A11DE
:1001E4000A12A800522034292508313A031D022995
:1001F4002008003A031D02293230A5000130A00076
:100204002008003A031D1829A50A2508363EF000E7
:1002140001300318013EF1007008A3007108A40026
:100224001A208A110A12A800522034292008013AFF
:10023400031D3429083087060A302502F0007008AF
:10024400A5000030F1003630F00701300318013EFC
:10025400F1077008A3007108A4001A208A110A1279
:08026400A8005220D32835291F
:10026C0000340834103418341F3427342F34373406
:10027C003E3446344D3455345C3463346A34713412
:10028C0078347F3486348D34933499349F34A53448
:10029C00AB34B134B634BC34C134C634CA34CF34C4
:1002AC00D334D734DB34DF34E234E534E834EB34A4
:1002BC00EE34F034F234F434F634F734F834F934F0
:0402CC00FA34FA34D2
:02400E00022F7F
:00000001FF
